{
	"contracts/1_Storage.sol": {
		"timelock": {
			"abi": [
				{
					"inputs": [
						{
							"internalType": "address",
							"name": "",
							"type": "address"
						},
						{
							"internalType": "uint256",
							"name": "",
							"type": "uint256"
						}
					],
					"name": "addressList",
					"outputs": [
						{
							"internalType": "uint256",
							"name": "",
							"type": "uint256"
						}
					],
					"stateMutability": "view",
					"type": "function"
				},
				{
					"inputs": [],
					"name": "get_balance",
					"outputs": [
						{
							"internalType": "uint256",
							"name": "",
							"type": "uint256"
						}
					],
					"stateMutability": "view",
					"type": "function"
				},
				{
					"inputs": [],
					"name": "set_balance",
					"outputs": [],
					"stateMutability": "payable",
					"type": "function"
				},
				{
					"inputs": [],
					"name": "withdraw_funds",
					"outputs": [],
					"stateMutability": "payable",
					"type": "function"
				}
			],
			"devdoc": {
				"kind": "dev",
				"methods": {},
				"version": 1
			},
			"evm": {
				"assembly": "    /* \"contracts/1_Storage.sol\":182:1075  contract timelock{... */\n  mstore(0x40, 0x80)\n  callvalue\n  dup1\n  iszero\n  tag_1\n  jumpi\n  0x00\n  dup1\n  revert\ntag_1:\n  pop\n  dataSize(sub_0)\n  dup1\n  dataOffset(sub_0)\n  0x00\n  codecopy\n  0x00\n  return\nstop\n\nsub_0: assembly {\n        /* \"contracts/1_Storage.sol\":182:1075  contract timelock{... */\n      mstore(0x40, 0x80)\n      jumpi(tag_1, lt(calldatasize, 0x04))\n      shr(0xe0, calldataload(0x00))\n      dup1\n      0x2b8f2042\n      eq\n      tag_2\n      jumpi\n      dup1\n      0x2c4b5586\n      eq\n      tag_3\n      jumpi\n      dup1\n      0x487f3fa7\n      eq\n      tag_4\n      jumpi\n      dup1\n      0xc1cfb99a\n      eq\n      tag_5\n      jumpi\n    tag_1:\n      0x00\n      dup1\n      revert\n        /* \"contracts/1_Storage.sol\":741:1073  function withdraw_funds() external payable... */\n    tag_2:\n      tag_6\n      tag_7\n      jump\t// in\n    tag_6:\n      stop\n        /* \"contracts/1_Storage.sol\":414:581  function set_balance() external payable {... */\n    tag_3:\n      tag_8\n      tag_9\n      jump\t// in\n    tag_8:\n      stop\n        /* \"contracts/1_Storage.sol\":362:407  mapping(address => uint[]) public addressList */\n    tag_4:\n      callvalue\n      dup1\n      iszero\n      tag_10\n      jumpi\n      0x00\n      dup1\n      revert\n    tag_10:\n      pop\n      tag_11\n      0x04\n      dup1\n      calldatasize\n      sub\n      dup2\n      add\n      swap1\n      tag_12\n      swap2\n      swap1\n      tag_13\n      jump\t// in\n    tag_12:\n      tag_14\n      jump\t// in\n    tag_11:\n      mload(0x40)\n      tag_15\n      swap2\n      swap1\n      tag_16\n      jump\t// in\n    tag_15:\n      mload(0x40)\n      dup1\n      swap2\n      sub\n      swap1\n      return\n        /* \"contracts/1_Storage.sol\":587:735  function get_balance() external view returns(uint){ ... */\n    tag_5:\n      callvalue\n      dup1\n      iszero\n      tag_17\n      jumpi\n      0x00\n      dup1\n      revert\n    tag_17:\n      pop\n      tag_18\n      tag_19\n      jump\t// in\n    tag_18:\n      mload(0x40)\n      tag_20\n      swap2\n      swap1\n      tag_16\n      jump\t// in\n    tag_20:\n      mload(0x40)\n      dup1\n      swap2\n      sub\n      swap1\n      return\n        /* \"contracts/1_Storage.sol\":741:1073  function withdraw_funds() external payable... */\n    tag_7:\n        /* \"contracts/1_Storage.sol\":863:869  7 days */\n      0x093a80\n        /* \"contracts/1_Storage.sol\":824:835  addressList */\n      0x00\n        /* \"contracts/1_Storage.sol\":824:856  addressList[payable(msg.sender)] */\n      dup1\n        /* \"contracts/1_Storage.sol\":844:854  msg.sender */\n      caller\n        /* \"contracts/1_Storage.sol\":824:856  addressList[payable(msg.sender)] */\n      0xffffffffffffffffffffffffffffffffffffffff\n      and\n      0xffffffffffffffffffffffffffffffffffffffff\n      and\n      dup2\n      mstore\n      0x20\n      add\n      swap1\n      dup2\n      mstore\n      0x20\n      add\n      0x00\n      keccak256\n        /* \"contracts/1_Storage.sol\":857:858  1 */\n      0x01\n        /* \"contracts/1_Storage.sol\":824:859  addressList[payable(msg.sender)][1] */\n      dup2\n      sload\n      dup2\n      lt\n      tag_22\n      jumpi\n      tag_23\n      tag_24\n      jump\t// in\n    tag_23:\n    tag_22:\n      swap1\n      0x00\n      mstore\n      keccak256(0x00, 0x20)\n      add\n      sload\n        /* \"contracts/1_Storage.sol\":806:821  block.timestamp */\n      timestamp\n        /* \"contracts/1_Storage.sol\":806:859  block.timestamp - addressList[payable(msg.sender)][1] */\n      tag_26\n      swap2\n      swap1\n      tag_27\n      jump\t// in\n    tag_26:\n        /* \"contracts/1_Storage.sol\":806:869  block.timestamp - addressList[payable(msg.sender)][1] == 7 days */\n      eq\n        /* \"contracts/1_Storage.sol\":798:870  require(block.timestamp - addressList[payable(msg.sender)][1] == 7 days) */\n      tag_28\n      jumpi\n      0x00\n      dup1\n      revert\n    tag_28:\n        /* \"contracts/1_Storage.sol\":926:927  0 */\n      0x00\n        /* \"contracts/1_Storage.sol\":888:899  addressList */\n      dup1\n        /* \"contracts/1_Storage.sol\":888:920  addressList[payable(msg.sender)] */\n      0x00\n        /* \"contracts/1_Storage.sol\":908:918  msg.sender */\n      caller\n        /* \"contracts/1_Storage.sol\":888:920  addressList[payable(msg.sender)] */\n      0xffffffffffffffffffffffffffffffffffffffff\n      and\n      0xffffffffffffffffffffffffffffffffffffffff\n      and\n      dup2\n      mstore\n      0x20\n      add\n      swap1\n      dup2\n      mstore\n      0x20\n      add\n      0x00\n      keccak256\n        /* \"contracts/1_Storage.sol\":921:922  0 */\n      0x00\n        /* \"contracts/1_Storage.sol\":888:923  addressList[payable(msg.sender)][0] */\n      dup2\n      sload\n      dup2\n      lt\n      tag_29\n      jumpi\n      tag_30\n      tag_24\n      jump\t// in\n    tag_30:\n    tag_29:\n      swap1\n      0x00\n      mstore\n      keccak256(0x00, 0x20)\n      add\n      sload\n        /* \"contracts/1_Storage.sol\":888:927  addressList[payable(msg.sender)][0] > 0 */\n      gt\n        /* \"contracts/1_Storage.sol\":880:928  require(addressList[payable(msg.sender)][0] > 0) */\n      tag_32\n      jumpi\n      0x00\n      dup1\n      revert\n    tag_32:\n        /* \"contracts/1_Storage.sol\":951:961  msg.sender */\n      caller\n        /* \"contracts/1_Storage.sol\":943:971  payable(msg.sender).transfer */\n      0xffffffffffffffffffffffffffffffffffffffff\n      and\n        /* \"contracts/1_Storage.sol\":943:1008  payable(msg.sender).transfer(addressList[payable(msg.sender)][0]) */\n      0x08fc\n        /* \"contracts/1_Storage.sol\":972:983  addressList */\n      0x00\n        /* \"contracts/1_Storage.sol\":972:1004  addressList[payable(msg.sender)] */\n      dup1\n        /* \"contracts/1_Storage.sol\":992:1002  msg.sender */\n      caller\n        /* \"contracts/1_Storage.sol\":972:1004  addressList[payable(msg.sender)] */\n      0xffffffffffffffffffffffffffffffffffffffff\n      and\n      0xffffffffffffffffffffffffffffffffffffffff\n      and\n      dup2\n      mstore\n      0x20\n      add\n      swap1\n      dup2\n      mstore\n      0x20\n      add\n      0x00\n      keccak256\n        /* \"contracts/1_Storage.sol\":1005:1006  0 */\n      0x00\n        /* \"contracts/1_Storage.sol\":972:1007  addressList[payable(msg.sender)][0] */\n      dup2\n      sload\n      dup2\n      lt\n      tag_33\n      jumpi\n      tag_34\n      tag_24\n      jump\t// in\n    tag_34:\n    tag_33:\n      swap1\n      0x00\n      mstore\n      keccak256(0x00, 0x20)\n      add\n      sload\n        /* \"contracts/1_Storage.sol\":943:1008  payable(msg.sender).transfer(addressList[payable(msg.sender)][0]) */\n      swap1\n      dup2\n      iszero\n      mul\n      swap1\n      mload(0x40)\n      0x00\n      mload(0x40)\n      dup1\n      dup4\n      sub\n      dup2\n      dup6\n      dup9\n      dup9\n      call\n      swap4\n      pop\n      pop\n      pop\n      pop\n      iszero\n      dup1\n      iszero\n      tag_37\n      jumpi\n      returndatasize\n      0x00\n      dup1\n      returndatacopy\n      revert(0x00, returndatasize)\n    tag_37:\n      pop\n        /* \"contracts/1_Storage.sol\":1064:1065  0 */\n      0x00\n        /* \"contracts/1_Storage.sol\":1025:1036  addressList */\n      dup1\n        /* \"contracts/1_Storage.sol\":1025:1057  addressList[payable(msg.sender)] */\n      0x00\n        /* \"contracts/1_Storage.sol\":1045:1055  msg.sender */\n      caller\n        /* \"contracts/1_Storage.sol\":1025:1057  addressList[payable(msg.sender)] */\n      0xffffffffffffffffffffffffffffffffffffffff\n      and\n      0xffffffffffffffffffffffffffffffffffffffff\n      and\n      dup2\n      mstore\n      0x20\n      add\n      swap1\n      dup2\n      mstore\n      0x20\n      add\n      0x00\n      keccak256\n        /* \"contracts/1_Storage.sol\":1058:1059  0 */\n      0x00\n        /* \"contracts/1_Storage.sol\":1025:1060  addressList[payable(msg.sender)][0] */\n      dup2\n      sload\n      dup2\n      lt\n      tag_38\n      jumpi\n      tag_39\n      tag_24\n      jump\t// in\n    tag_39:\n    tag_38:\n      swap1\n      0x00\n      mstore\n      keccak256(0x00, 0x20)\n      add\n      sload\n        /* \"contracts/1_Storage.sol\":1025:1065  addressList[payable(msg.sender)][0] != 0 */\n      eq\n      iszero\n        /* \"contracts/1_Storage.sol\":1018:1066  assert(addressList[payable(msg.sender)][0] != 0) */\n      tag_41\n      jumpi\n      tag_42\n      tag_43\n      jump\t// in\n    tag_42:\n    tag_41:\n        /* \"contracts/1_Storage.sol\":741:1073  function withdraw_funds() external payable... */\n      jump\t// out\n        /* \"contracts/1_Storage.sol\":414:581  function set_balance() external payable {... */\n    tag_9:\n        /* \"contracts/1_Storage.sol\":502:511  msg.value */\n      callvalue\n        /* \"contracts/1_Storage.sol\":464:475  addressList */\n      0x00\n        /* \"contracts/1_Storage.sol\":464:496  addressList[payable(msg.sender)] */\n      dup1\n        /* \"contracts/1_Storage.sol\":484:494  msg.sender */\n      caller\n        /* \"contracts/1_Storage.sol\":464:496  addressList[payable(msg.sender)] */\n      0xffffffffffffffffffffffffffffffffffffffff\n      and\n      0xffffffffffffffffffffffffffffffffffffffff\n      and\n      dup2\n      mstore\n      0x20\n      add\n      swap1\n      dup2\n      mstore\n      0x20\n      add\n      0x00\n      keccak256\n        /* \"contracts/1_Storage.sol\":497:498  0 */\n      0x00\n        /* \"contracts/1_Storage.sol\":464:499  addressList[payable(msg.sender)][0] */\n      dup2\n      sload\n      dup2\n      lt\n      tag_45\n      jumpi\n      tag_46\n      tag_24\n      jump\t// in\n    tag_46:\n    tag_45:\n      swap1\n      0x00\n      mstore\n      keccak256(0x00, 0x20)\n      add\n        /* \"contracts/1_Storage.sol\":464:511  addressList[payable(msg.sender)][0] = msg.value */\n      dup2\n      swap1\n      sstore\n      pop\n        /* \"contracts/1_Storage.sol\":559:574  block.timestamp */\n      timestamp\n        /* \"contracts/1_Storage.sol\":521:532  addressList */\n      0x00\n        /* \"contracts/1_Storage.sol\":521:553  addressList[payable(msg.sender)] */\n      dup1\n        /* \"contracts/1_Storage.sol\":541:551  msg.sender */\n      caller\n        /* \"contracts/1_Storage.sol\":521:553  addressList[payable(msg.sender)] */\n      0xffffffffffffffffffffffffffffffffffffffff\n      and\n      0xffffffffffffffffffffffffffffffffffffffff\n      and\n      dup2\n      mstore\n      0x20\n      add\n      swap1\n      dup2\n      mstore\n      0x20\n      add\n      0x00\n      keccak256\n        /* \"contracts/1_Storage.sol\":554:555  1 */\n      0x01\n        /* \"contracts/1_Storage.sol\":521:556  addressList[payable(msg.sender)][1] */\n      dup2\n      sload\n      dup2\n      lt\n      tag_48\n      jumpi\n      tag_49\n      tag_24\n      jump\t// in\n    tag_49:\n    tag_48:\n      swap1\n      0x00\n      mstore\n      keccak256(0x00, 0x20)\n      add\n        /* \"contracts/1_Storage.sol\":521:574  addressList[payable(msg.sender)][1] = block.timestamp */\n      dup2\n      swap1\n      sstore\n      pop\n        /* \"contracts/1_Storage.sol\":414:581  function set_balance() external payable {... */\n      jump\t// out\n        /* \"contracts/1_Storage.sol\":362:407  mapping(address => uint[]) public addressList */\n    tag_14:\n      mstore(0x20, 0x00)\n      dup2\n      0x00\n      mstore\n      keccak256(0x00, 0x40)\n      dup2\n      dup2\n      sload\n      dup2\n      lt\n      tag_51\n      jumpi\n      0x00\n      dup1\n      revert\n    tag_51:\n      swap1\n      0x00\n      mstore\n      keccak256(0x00, 0x20)\n      add\n      0x00\n      swap2\n      pop\n      swap2\n      pop\n      pop\n      sload\n      dup2\n      jump\t// out\n        /* \"contracts/1_Storage.sol\":587:735  function get_balance() external view returns(uint){ ... */\n    tag_19:\n        /* \"contracts/1_Storage.sol\":632:636  uint */\n      0x00\n        /* \"contracts/1_Storage.sol\":692:703  addressList */\n      dup1\n        /* \"contracts/1_Storage.sol\":692:724  addressList[payable(msg.sender)] */\n      0x00\n        /* \"contracts/1_Storage.sol\":712:722  msg.sender */\n      caller\n        /* \"contracts/1_Storage.sol\":692:724  addressList[payable(msg.sender)] */\n      0xffffffffffffffffffffffffffffffffffffffff\n      and\n      0xffffffffffffffffffffffffffffffffffffffff\n      and\n      dup2\n      mstore\n      0x20\n      add\n      swap1\n      dup2\n      mstore\n      0x20\n      add\n      0x00\n      keccak256\n        /* \"contracts/1_Storage.sol\":725:726  0 */\n      0x00\n        /* \"contracts/1_Storage.sol\":692:727  addressList[payable(msg.sender)][0] */\n      dup2\n      sload\n      dup2\n      lt\n      tag_54\n      jumpi\n      tag_55\n      tag_24\n      jump\t// in\n    tag_55:\n    tag_54:\n      swap1\n      0x00\n      mstore\n      keccak256(0x00, 0x20)\n      add\n      sload\n        /* \"contracts/1_Storage.sol\":685:728  return(addressList[payable(msg.sender)][0]) */\n      swap1\n      pop\n        /* \"contracts/1_Storage.sol\":587:735  function get_balance() external view returns(uint){ ... */\n      swap1\n      jump\t// out\n        /* \"#utility.yul\":7:146   */\n    tag_58:\n        /* \"#utility.yul\":53:58   */\n      0x00\n        /* \"#utility.yul\":91:97   */\n      dup2\n        /* \"#utility.yul\":78:98   */\n      calldataload\n        /* \"#utility.yul\":69:98   */\n      swap1\n      pop\n        /* \"#utility.yul\":107:140   */\n      tag_60\n        /* \"#utility.yul\":134:139   */\n      dup2\n        /* \"#utility.yul\":107:140   */\n      tag_61\n      jump\t// in\n    tag_60:\n        /* \"#utility.yul\":7:146   */\n      swap3\n      swap2\n      pop\n      pop\n      jump\t// out\n        /* \"#utility.yul\":152:291   */\n    tag_62:\n        /* \"#utility.yul\":198:203   */\n      0x00\n        /* \"#utility.yul\":236:242   */\n      dup2\n        /* \"#utility.yul\":223:243   */\n      calldataload\n        /* \"#utility.yul\":214:243   */\n      swap1\n      pop\n        /* \"#utility.yul\":252:285   */\n      tag_64\n        /* \"#utility.yul\":279:284   */\n      dup2\n        /* \"#utility.yul\":252:285   */\n      tag_65\n      jump\t// in\n    tag_64:\n        /* \"#utility.yul\":152:291   */\n      swap3\n      swap2\n      pop\n      pop\n      jump\t// out\n        /* \"#utility.yul\":297:771   */\n    tag_13:\n        /* \"#utility.yul\":365:371   */\n      0x00\n        /* \"#utility.yul\":373:379   */\n      dup1\n        /* \"#utility.yul\":422:424   */\n      0x40\n        /* \"#utility.yul\":410:419   */\n      dup4\n        /* \"#utility.yul\":401:408   */\n      dup6\n        /* \"#utility.yul\":397:420   */\n      sub\n        /* \"#utility.yul\":393:425   */\n      slt\n        /* \"#utility.yul\":390:509   */\n      iszero\n      tag_67\n      jumpi\n        /* \"#utility.yul\":428:507   */\n      tag_68\n      tag_69\n      jump\t// in\n    tag_68:\n        /* \"#utility.yul\":390:509   */\n    tag_67:\n        /* \"#utility.yul\":548:549   */\n      0x00\n        /* \"#utility.yul\":573:626   */\n      tag_70\n        /* \"#utility.yul\":618:625   */\n      dup6\n        /* \"#utility.yul\":609:615   */\n      dup3\n        /* \"#utility.yul\":598:607   */\n      dup7\n        /* \"#utility.yul\":594:616   */\n      add\n        /* \"#utility.yul\":573:626   */\n      tag_58\n      jump\t// in\n    tag_70:\n        /* \"#utility.yul\":563:626   */\n      swap3\n      pop\n        /* \"#utility.yul\":519:636   */\n      pop\n        /* \"#utility.yul\":675:677   */\n      0x20\n        /* \"#utility.yul\":701:754   */\n      tag_71\n        /* \"#utility.yul\":746:753   */\n      dup6\n        /* \"#utility.yul\":737:743   */\n      dup3\n        /* \"#utility.yul\":726:735   */\n      dup7\n        /* \"#utility.yul\":722:744   */\n      add\n        /* \"#utility.yul\":701:754   */\n      tag_62\n      jump\t// in\n    tag_71:\n        /* \"#utility.yul\":691:754   */\n      swap2\n      pop\n        /* \"#utility.yul\":646:764   */\n      pop\n        /* \"#utility.yul\":297:771   */\n      swap3\n      pop\n      swap3\n      swap1\n      pop\n      jump\t// out\n        /* \"#utility.yul\":777:895   */\n    tag_72:\n        /* \"#utility.yul\":864:888   */\n      tag_74\n        /* \"#utility.yul\":882:887   */\n      dup2\n        /* \"#utility.yul\":864:888   */\n      tag_75\n      jump\t// in\n    tag_74:\n        /* \"#utility.yul\":859:862   */\n      dup3\n        /* \"#utility.yul\":852:889   */\n      mstore\n        /* \"#utility.yul\":777:895   */\n      pop\n      pop\n      jump\t// out\n        /* \"#utility.yul\":901:1123   */\n    tag_16:\n        /* \"#utility.yul\":994:998   */\n      0x00\n        /* \"#utility.yul\":1032:1034   */\n      0x20\n        /* \"#utility.yul\":1021:1030   */\n      dup3\n        /* \"#utility.yul\":1017:1035   */\n      add\n        /* \"#utility.yul\":1009:1035   */\n      swap1\n      pop\n        /* \"#utility.yul\":1045:1116   */\n      tag_77\n        /* \"#utility.yul\":1113:1114   */\n      0x00\n        /* \"#utility.yul\":1102:1111   */\n      dup4\n        /* \"#utility.yul\":1098:1115   */\n      add\n        /* \"#utility.yul\":1089:1095   */\n      dup5\n        /* \"#utility.yul\":1045:1116   */\n      tag_72\n      jump\t// in\n    tag_77:\n        /* \"#utility.yul\":901:1123   */\n      swap3\n      swap2\n      pop\n      pop\n      jump\t// out\n        /* \"#utility.yul\":1210:1401   */\n    tag_27:\n        /* \"#utility.yul\":1250:1254   */\n      0x00\n        /* \"#utility.yul\":1270:1290   */\n      tag_81\n        /* \"#utility.yul\":1288:1289   */\n      dup3\n        /* \"#utility.yul\":1270:1290   */\n      tag_75\n      jump\t// in\n    tag_81:\n        /* \"#utility.yul\":1265:1290   */\n      swap2\n      pop\n        /* \"#utility.yul\":1304:1324   */\n      tag_82\n        /* \"#utility.yul\":1322:1323   */\n      dup4\n        /* \"#utility.yul\":1304:1324   */\n      tag_75\n      jump\t// in\n    tag_82:\n        /* \"#utility.yul\":1299:1324   */\n      swap3\n      pop\n        /* \"#utility.yul\":1343:1344   */\n      dup3\n        /* \"#utility.yul\":1340:1341   */\n      dup3\n        /* \"#utility.yul\":1337:1345   */\n      lt\n        /* \"#utility.yul\":1334:1368   */\n      iszero\n      tag_83\n      jumpi\n        /* \"#utility.yul\":1348:1366   */\n      tag_84\n      tag_85\n      jump\t// in\n    tag_84:\n        /* \"#utility.yul\":1334:1368   */\n    tag_83:\n        /* \"#utility.yul\":1393:1394   */\n      dup3\n        /* \"#utility.yul\":1390:1391   */\n      dup3\n        /* \"#utility.yul\":1386:1395   */\n      sub\n        /* \"#utility.yul\":1378:1395   */\n      swap1\n      pop\n        /* \"#utility.yul\":1210:1401   */\n      swap3\n      swap2\n      pop\n      pop\n      jump\t// out\n        /* \"#utility.yul\":1407:1503   */\n    tag_86:\n        /* \"#utility.yul\":1444:1451   */\n      0x00\n        /* \"#utility.yul\":1473:1497   */\n      tag_88\n        /* \"#utility.yul\":1491:1496   */\n      dup3\n        /* \"#utility.yul\":1473:1497   */\n      tag_89\n      jump\t// in\n    tag_88:\n        /* \"#utility.yul\":1462:1497   */\n      swap1\n      pop\n        /* \"#utility.yul\":1407:1503   */\n      swap2\n      swap1\n      pop\n      jump\t// out\n        /* \"#utility.yul\":1509:1635   */\n    tag_89:\n        /* \"#utility.yul\":1546:1553   */\n      0x00\n        /* \"#utility.yul\":1586:1628   */\n      0xffffffffffffffffffffffffffffffffffffffff\n        /* \"#utility.yul\":1579:1584   */\n      dup3\n        /* \"#utility.yul\":1575:1629   */\n      and\n        /* \"#utility.yul\":1564:1629   */\n      swap1\n      pop\n        /* \"#utility.yul\":1509:1635   */\n      swap2\n      swap1\n      pop\n      jump\t// out\n        /* \"#utility.yul\":1641:1718   */\n    tag_75:\n        /* \"#utility.yul\":1678:1685   */\n      0x00\n        /* \"#utility.yul\":1707:1712   */\n      dup2\n        /* \"#utility.yul\":1696:1712   */\n      swap1\n      pop\n        /* \"#utility.yul\":1641:1718   */\n      swap2\n      swap1\n      pop\n      jump\t// out\n        /* \"#utility.yul\":1724:1904   */\n    tag_43:\n        /* \"#utility.yul\":1772:1849   */\n      0x4e487b7100000000000000000000000000000000000000000000000000000000\n        /* \"#utility.yul\":1769:1770   */\n      0x00\n        /* \"#utility.yul\":1762:1850   */\n      mstore\n        /* \"#utility.yul\":1869:1873   */\n      0x01\n        /* \"#utility.yul\":1866:1867   */\n      0x04\n        /* \"#utility.yul\":1859:1874   */\n      mstore\n        /* \"#utility.yul\":1893:1897   */\n      0x24\n        /* \"#utility.yul\":1890:1891   */\n      0x00\n        /* \"#utility.yul\":1883:1898   */\n      revert\n        /* \"#utility.yul\":1910:2090   */\n    tag_85:\n        /* \"#utility.yul\":1958:2035   */\n      0x4e487b7100000000000000000000000000000000000000000000000000000000\n        /* \"#utility.yul\":1955:1956   */\n      0x00\n        /* \"#utility.yul\":1948:2036   */\n      mstore\n        /* \"#utility.yul\":2055:2059   */\n      0x11\n        /* \"#utility.yul\":2052:2053   */\n      0x04\n        /* \"#utility.yul\":2045:2060   */\n      mstore\n        /* \"#utility.yul\":2079:2083   */\n      0x24\n        /* \"#utility.yul\":2076:2077   */\n      0x00\n        /* \"#utility.yul\":2069:2084   */\n      revert\n        /* \"#utility.yul\":2096:2276   */\n    tag_24:\n        /* \"#utility.yul\":2144:2221   */\n      0x4e487b7100000000000000000000000000000000000000000000000000000000\n        /* \"#utility.yul\":2141:2142   */\n      0x00\n        /* \"#utility.yul\":2134:2222   */\n      mstore\n        /* \"#utility.yul\":2241:2245   */\n      0x32\n        /* \"#utility.yul\":2238:2239   */\n      0x04\n        /* \"#utility.yul\":2231:2246   */\n      mstore\n        /* \"#utility.yul\":2265:2269   */\n      0x24\n        /* \"#utility.yul\":2262:2263   */\n      0x00\n        /* \"#utility.yul\":2255:2270   */\n      revert\n        /* \"#utility.yul\":2405:2522   */\n    tag_69:\n        /* \"#utility.yul\":2514:2515   */\n      0x00\n        /* \"#utility.yul\":2511:2512   */\n      dup1\n        /* \"#utility.yul\":2504:2516   */\n      revert\n        /* \"#utility.yul\":2528:2650   */\n    tag_61:\n        /* \"#utility.yul\":2601:2625   */\n      tag_99\n        /* \"#utility.yul\":2619:2624   */\n      dup2\n        /* \"#utility.yul\":2601:2625   */\n      tag_86\n      jump\t// in\n    tag_99:\n        /* \"#utility.yul\":2594:2599   */\n      dup2\n        /* \"#utility.yul\":2591:2626   */\n      eq\n        /* \"#utility.yul\":2581:2644   */\n      tag_100\n      jumpi\n        /* \"#utility.yul\":2640:2641   */\n      0x00\n        /* \"#utility.yul\":2637:2638   */\n      dup1\n        /* \"#utility.yul\":2630:2642   */\n      revert\n        /* \"#utility.yul\":2581:2644   */\n    tag_100:\n        /* \"#utility.yul\":2528:2650   */\n      pop\n      jump\t// out\n        /* \"#utility.yul\":2656:2778   */\n    tag_65:\n        /* \"#utility.yul\":2729:2753   */\n      tag_102\n        /* \"#utility.yul\":2747:2752   */\n      dup2\n        /* \"#utility.yul\":2729:2753   */\n      tag_75\n      jump\t// in\n    tag_102:\n        /* \"#utility.yul\":2722:2727   */\n      dup2\n        /* \"#utility.yul\":2719:2754   */\n      eq\n        /* \"#utility.yul\":2709:2772   */\n      tag_103\n      jumpi\n        /* \"#utility.yul\":2768:2769   */\n      0x00\n        /* \"#utility.yul\":2765:2766   */\n      dup1\n        /* \"#utility.yul\":2758:2770   */\n      revert\n        /* \"#utility.yul\":2709:2772   */\n    tag_103:\n        /* \"#utility.yul\":2656:2778   */\n      pop\n      jump\t// out\n\n    auxdata: 0xa26469706673582212206196861560fd20f3676f51e7a8afc2ffb2f245ce52696b031ced681483eb001d64736f6c63430008070033\n}\n",
				"bytecode": {
					"linkReferences": {},
					"object": "608060405234801561001057600080fd5b506105fe806100206000396000f3fe60806040526004361061003f5760003560e01c80632b8f2042146100445780632c4b55861461004e578063487f3fa714610058578063c1cfb99a14610095575b600080fd5b61004c6100c0565b005b6100566102ae565b005b34801561006457600080fd5b5061007f600480360381019061007a919061042e565b610370565b60405161008c919061047d565b60405180910390f35b3480156100a157600080fd5b506100aa6103a1565b6040516100b7919061047d565b60405180910390f35b62093a806000803373ffffffffffffffffffffffffffffffffffffffff1673ffffffffffffffffffffffffffffffffffffffff16815260200190815260200160002060018154811061011557610114610566565b5b90600052602060002001544261012b9190610498565b1461013557600080fd5b60008060003373ffffffffffffffffffffffffffffffffffffffff1673ffffffffffffffffffffffffffffffffffffffff16815260200190815260200160002060008154811061018857610187610566565b5b90600052602060002001541161019d57600080fd5b3373ffffffffffffffffffffffffffffffffffffffff166108fc6000803373ffffffffffffffffffffffffffffffffffffffff1673ffffffffffffffffffffffffffffffffffffffff16815260200190815260200160002060008154811061020857610207610566565b5b90600052602060002001549081150290604051600060405180830381858888f1935050505015801561023e573d6000803e3d6000fd5b5060008060003373ffffffffffffffffffffffffffffffffffffffff1673ffffffffffffffffffffffffffffffffffffffff16815260200190815260200160002060008154811061029257610291610566565b5b906000526020600020015414156102ac576102ab610508565b5b565b346000803373ffffffffffffffffffffffffffffffffffffffff1673ffffffffffffffffffffffffffffffffffffffff168152602001908152602001600020600081548110610300576102ff610566565b5b9060005260206000200181905550426000803373ffffffffffffffffffffffffffffffffffffffff1673ffffffffffffffffffffffffffffffffffffffff1681526020019081526020016000206001815481106103605761035f610566565b5b9060005260206000200181905550565b6000602052816000526040600020818154811061038c57600080fd5b90600052602060002001600091509150505481565b60008060003373ffffffffffffffffffffffffffffffffffffffff1673ffffffffffffffffffffffffffffffffffffffff1681526020019081526020016000206000815481106103f4576103f3610566565b5b9060005260206000200154905090565b6000813590506104138161059a565b92915050565b600081359050610428816105b1565b92915050565b6000806040838503121561044557610444610595565b5b600061045385828601610404565b925050602061046485828601610419565b9150509250929050565b610477816104fe565b82525050565b6000602082019050610492600083018461046e565b92915050565b60006104a3826104fe565b91506104ae836104fe565b9250828210156104c1576104c0610537565b5b828203905092915050565b60006104d7826104de565b9050919050565b600073ffffffffffffffffffffffffffffffffffffffff82169050919050565b6000819050919050565b7f4e487b7100000000000000000000000000000000000000000000000000000000600052600160045260246000fd5b7f4e487b7100000000000000000000000000000000000000000000000000000000600052601160045260246000fd5b7f4e487b7100000000000000000000000000000000000000000000000000000000600052603260045260246000fd5b600080fd5b6105a3816104cc565b81146105ae57600080fd5b50565b6105ba816104fe565b81146105c557600080fd5b5056fea26469706673582212206196861560fd20f3676f51e7a8afc2ffb2f245ce52696b031ced681483eb001d64736f6c63430008070033",
					"opcodes": "PUSH1 0x80 PUSH1 0x40 MSTORE CALLVALUE DUP1 ISZERO PUSH2 0x10 JUMPI PUSH1 0x0 DUP1 REVERT JUMPDEST POP PUSH2 0x5FE DUP1 PUSH2 0x20 PUSH1 0x0 CODECOPY PUSH1 0x0 RETURN INVALID PUSH1 0x80 PUSH1 0x40 MSTORE PUSH1 0x4 CALLDATASIZE LT PUSH2 0x3F JUMPI PUSH1 0x0 CALLDATALOAD PUSH1 0xE0 SHR DUP1 PUSH4 0x2B8F2042 EQ PUSH2 0x44 JUMPI DUP1 PUSH4 0x2C4B5586 EQ PUSH2 0x4E JUMPI DUP1 PUSH4 0x487F3FA7 EQ PUSH2 0x58 JUMPI DUP1 PUSH4 0xC1CFB99A EQ PUSH2 0x95 JUMPI JUMPDEST PUSH1 0x0 DUP1 REVERT JUMPDEST PUSH2 0x4C PUSH2 0xC0 JUMP JUMPDEST STOP JUMPDEST PUSH2 0x56 PUSH2 0x2AE JUMP JUMPDEST STOP JUMPDEST CALLVALUE DUP1 ISZERO PUSH2 0x64 JUMPI PUSH1 0x0 DUP1 REVERT JUMPDEST POP PUSH2 0x7F PUSH1 0x4 DUP1 CALLDATASIZE SUB DUP2 ADD SWAP1 PUSH2 0x7A SWAP2 SWAP1 PUSH2 0x42E JUMP JUMPDEST PUSH2 0x370 JUMP JUMPDEST PUSH1 0x40 MLOAD PUSH2 0x8C SWAP2 SWAP1 PUSH2 0x47D JUMP JUMPDEST PUSH1 0x40 MLOAD DUP1 SWAP2 SUB SWAP1 RETURN JUMPDEST CALLVALUE DUP1 ISZERO PUSH2 0xA1 JUMPI PUSH1 0x0 DUP1 REVERT JUMPDEST POP PUSH2 0xAA PUSH2 0x3A1 JUMP JUMPDEST PUSH1 0x40 MLOAD PUSH2 0xB7 SWAP2 SWAP1 PUSH2 0x47D JUMP JUMPDEST PUSH1 0x40 MLOAD DUP1 SWAP2 SUB SWAP1 RETURN JUMPDEST PUSH3 0x93A80 PUSH1 0x0 DUP1 CALLER PUSH20 0xFFFFFFFFFFFFFFFFFFFFFFFFFFFFFFFFFFFFFFFF AND PUSH20 0xFFFFFFFFFFFFFFFFFFFFFFFFFFFFFFFFFFFFFFFF AND DUP2 MSTORE PUSH1 0x20 ADD SWAP1 DUP2 MSTORE PUSH1 0x20 ADD PUSH1 0x0 KECCAK256 PUSH1 0x1 DUP2 SLOAD DUP2 LT PUSH2 0x115 JUMPI PUSH2 0x114 PUSH2 0x566 JUMP JUMPDEST JUMPDEST SWAP1 PUSH1 0x0 MSTORE PUSH1 0x20 PUSH1 0x0 KECCAK256 ADD SLOAD TIMESTAMP PUSH2 0x12B SWAP2 SWAP1 PUSH2 0x498 JUMP JUMPDEST EQ PUSH2 0x135 JUMPI PUSH1 0x0 DUP1 REVERT JUMPDEST PUSH1 0x0 DUP1 PUSH1 0x0 CALLER PUSH20 0xFFFFFFFFFFFFFFFFFFFFFFFFFFFFFFFFFFFFFFFF AND PUSH20 0xFFFFFFFFFFFFFFFFFFFFFFFFFFFFFFFFFFFFFFFF AND DUP2 MSTORE PUSH1 0x20 ADD SWAP1 DUP2 MSTORE PUSH1 0x20 ADD PUSH1 0x0 KECCAK256 PUSH1 0x0 DUP2 SLOAD DUP2 LT PUSH2 0x188 JUMPI PUSH2 0x187 PUSH2 0x566 JUMP JUMPDEST JUMPDEST SWAP1 PUSH1 0x0 MSTORE PUSH1 0x20 PUSH1 0x0 KECCAK256 ADD SLOAD GT PUSH2 0x19D JUMPI PUSH1 0x0 DUP1 REVERT JUMPDEST CALLER PUSH20 0xFFFFFFFFFFFFFFFFFFFFFFFFFFFFFFFFFFFFFFFF AND PUSH2 0x8FC PUSH1 0x0 DUP1 CALLER PUSH20 0xFFFFFFFFFFFFFFFFFFFFFFFFFFFFFFFFFFFFFFFF AND PUSH20 0xFFFFFFFFFFFFFFFFFFFFFFFFFFFFFFFFFFFFFFFF AND DUP2 MSTORE PUSH1 0x20 ADD SWAP1 DUP2 MSTORE PUSH1 0x20 ADD PUSH1 0x0 KECCAK256 PUSH1 0x0 DUP2 SLOAD DUP2 LT PUSH2 0x208 JUMPI PUSH2 0x207 PUSH2 0x566 JUMP JUMPDEST JUMPDEST SWAP1 PUSH1 0x0 MSTORE PUSH1 0x20 PUSH1 0x0 KECCAK256 ADD SLOAD SWAP1 DUP2 ISZERO MUL SWAP1 PUSH1 0x40 MLOAD PUSH1 0x0 PUSH1 0x40 MLOAD DUP1 DUP4 SUB DUP2 DUP6 DUP9 DUP9 CALL SWAP4 POP POP POP POP ISZERO DUP1 ISZERO PUSH2 0x23E JUMPI RETURNDATASIZE PUSH1 0x0 DUP1 RETURNDATACOPY RETURNDATASIZE PUSH1 0x0 REVERT JUMPDEST POP PUSH1 0x0 DUP1 PUSH1 0x0 CALLER PUSH20 0xFFFFFFFFFFFFFFFFFFFFFFFFFFFFFFFFFFFFFFFF AND PUSH20 0xFFFFFFFFFFFFFFFFFFFFFFFFFFFFFFFFFFFFFFFF AND DUP2 MSTORE PUSH1 0x20 ADD SWAP1 DUP2 MSTORE PUSH1 0x20 ADD PUSH1 0x0 KECCAK256 PUSH1 0x0 DUP2 SLOAD DUP2 LT PUSH2 0x292 JUMPI PUSH2 0x291 PUSH2 0x566 JUMP JUMPDEST JUMPDEST SWAP1 PUSH1 0x0 MSTORE PUSH1 0x20 PUSH1 0x0 KECCAK256 ADD SLOAD EQ ISZERO PUSH2 0x2AC JUMPI PUSH2 0x2AB PUSH2 0x508 JUMP JUMPDEST JUMPDEST JUMP JUMPDEST CALLVALUE PUSH1 0x0 DUP1 CALLER PUSH20 0xFFFFFFFFFFFFFFFFFFFFFFFFFFFFFFFFFFFFFFFF AND PUSH20 0xFFFFFFFFFFFFFFFFFFFFFFFFFFFFFFFFFFFFFFFF AND DUP2 MSTORE PUSH1 0x20 ADD SWAP1 DUP2 MSTORE PUSH1 0x20 ADD PUSH1 0x0 KECCAK256 PUSH1 0x0 DUP2 SLOAD DUP2 LT PUSH2 0x300 JUMPI PUSH2 0x2FF PUSH2 0x566 JUMP JUMPDEST JUMPDEST SWAP1 PUSH1 0x0 MSTORE PUSH1 0x20 PUSH1 0x0 KECCAK256 ADD DUP2 SWAP1 SSTORE POP TIMESTAMP PUSH1 0x0 DUP1 CALLER PUSH20 0xFFFFFFFFFFFFFFFFFFFFFFFFFFFFFFFFFFFFFFFF AND PUSH20 0xFFFFFFFFFFFFFFFFFFFFFFFFFFFFFFFFFFFFFFFF AND DUP2 MSTORE PUSH1 0x20 ADD SWAP1 DUP2 MSTORE PUSH1 0x20 ADD PUSH1 0x0 KECCAK256 PUSH1 0x1 DUP2 SLOAD DUP2 LT PUSH2 0x360 JUMPI PUSH2 0x35F PUSH2 0x566 JUMP JUMPDEST JUMPDEST SWAP1 PUSH1 0x0 MSTORE PUSH1 0x20 PUSH1 0x0 KECCAK256 ADD DUP2 SWAP1 SSTORE POP JUMP JUMPDEST PUSH1 0x0 PUSH1 0x20 MSTORE DUP2 PUSH1 0x0 MSTORE PUSH1 0x40 PUSH1 0x0 KECCAK256 DUP2 DUP2 SLOAD DUP2 LT PUSH2 0x38C JUMPI PUSH1 0x0 DUP1 REVERT JUMPDEST SWAP1 PUSH1 0x0 MSTORE PUSH1 0x20 PUSH1 0x0 KECCAK256 ADD PUSH1 0x0 SWAP2 POP SWAP2 POP POP SLOAD DUP2 JUMP JUMPDEST PUSH1 0x0 DUP1 PUSH1 0x0 CALLER PUSH20 0xFFFFFFFFFFFFFFFFFFFFFFFFFFFFFFFFFFFFFFFF AND PUSH20 0xFFFFFFFFFFFFFFFFFFFFFFFFFFFFFFFFFFFFFFFF AND DUP2 MSTORE PUSH1 0x20 ADD SWAP1 DUP2 MSTORE PUSH1 0x20 ADD PUSH1 0x0 KECCAK256 PUSH1 0x0 DUP2 SLOAD DUP2 LT PUSH2 0x3F4 JUMPI PUSH2 0x3F3 PUSH2 0x566 JUMP JUMPDEST JUMPDEST SWAP1 PUSH1 0x0 MSTORE PUSH1 0x20 PUSH1 0x0 KECCAK256 ADD SLOAD SWAP1 POP SWAP1 JUMP JUMPDEST PUSH1 0x0 DUP2 CALLDATALOAD SWAP1 POP PUSH2 0x413 DUP2 PUSH2 0x59A JUMP JUMPDEST SWAP3 SWAP2 POP POP JUMP JUMPDEST PUSH1 0x0 DUP2 CALLDATALOAD SWAP1 POP PUSH2 0x428 DUP2 PUSH2 0x5B1 JUMP JUMPDEST SWAP3 SWAP2 POP POP JUMP JUMPDEST PUSH1 0x0 DUP1 PUSH1 0x40 DUP4 DUP6 SUB SLT ISZERO PUSH2 0x445 JUMPI PUSH2 0x444 PUSH2 0x595 JUMP JUMPDEST JUMPDEST PUSH1 0x0 PUSH2 0x453 DUP6 DUP3 DUP7 ADD PUSH2 0x404 JUMP JUMPDEST SWAP3 POP POP PUSH1 0x20 PUSH2 0x464 DUP6 DUP3 DUP7 ADD PUSH2 0x419 JUMP JUMPDEST SWAP2 POP POP SWAP3 POP SWAP3 SWAP1 POP JUMP JUMPDEST PUSH2 0x477 DUP2 PUSH2 0x4FE JUMP JUMPDEST DUP3 MSTORE POP POP JUMP JUMPDEST PUSH1 0x0 PUSH1 0x20 DUP3 ADD SWAP1 POP PUSH2 0x492 PUSH1 0x0 DUP4 ADD DUP5 PUSH2 0x46E JUMP JUMPDEST SWAP3 SWAP2 POP POP JUMP JUMPDEST PUSH1 0x0 PUSH2 0x4A3 DUP3 PUSH2 0x4FE JUMP JUMPDEST SWAP2 POP PUSH2 0x4AE DUP4 PUSH2 0x4FE JUMP JUMPDEST SWAP3 POP DUP3 DUP3 LT ISZERO PUSH2 0x4C1 JUMPI PUSH2 0x4C0 PUSH2 0x537 JUMP JUMPDEST JUMPDEST DUP3 DUP3 SUB SWAP1 POP SWAP3 SWAP2 POP POP JUMP JUMPDEST PUSH1 0x0 PUSH2 0x4D7 DUP3 PUSH2 0x4DE JUMP JUMPDEST SWAP1 POP SWAP2 SWAP1 POP JUMP JUMPDEST PUSH1 0x0 PUSH20 0xFFFFFFFFFFFFFFFFFFFFFFFFFFFFFFFFFFFFFFFF DUP3 AND SWAP1 POP SWAP2 SWAP1 POP JUMP JUMPDEST PUSH1 0x0 DUP2 SWAP1 POP SWAP2 SWAP1 POP JUMP JUMPDEST PUSH32 0x4E487B7100000000000000000000000000000000000000000000000000000000 PUSH1 0x0 MSTORE PUSH1 0x1 PUSH1 0x4 MSTORE PUSH1 0x24 PUSH1 0x0 REVERT JUMPDEST PUSH32 0x4E487B7100000000000000000000000000000000000000000000000000000000 PUSH1 0x0 MSTORE PUSH1 0x11 PUSH1 0x4 MSTORE PUSH1 0x24 PUSH1 0x0 REVERT JUMPDEST PUSH32 0x4E487B7100000000000000000000000000000000000000000000000000000000 PUSH1 0x0 MSTORE PUSH1 0x32 PUSH1 0x4 MSTORE PUSH1 0x24 PUSH1 0x0 REVERT JUMPDEST PUSH1 0x0 DUP1 REVERT JUMPDEST PUSH2 0x5A3 DUP2 PUSH2 0x4CC JUMP JUMPDEST DUP2 EQ PUSH2 0x5AE JUMPI PUSH1 0x0 DUP1 REVERT JUMPDEST POP JUMP JUMPDEST PUSH2 0x5BA DUP2 PUSH2 0x4FE JUMP JUMPDEST DUP2 EQ PUSH2 0x5C5 JUMPI PUSH1 0x0 DUP1 REVERT JUMPDEST POP JUMP INVALID LOG2 PUSH5 0x6970667358 0x22 SLT KECCAK256 PUSH2 0x9686 ISZERO PUSH1 0xFD KECCAK256 RETURN PUSH8 0x6F51E7A8AFC2FFB2 CALLCODE GASLIMIT 0xCE MSTORE PUSH10 0x6B031CED681483EB001D PUSH5 0x736F6C6343 STOP ADDMOD SMOD STOP CALLER "
				},
				"gasEstimates": {
					"creation": {
						"codeDepositCost": "306800",
						"executionCost": "343",
						"totalCost": "307143"
					},
					"external": {
						"addressList(address,uint256)": "infinite",
						"get_balance()": "4750",
						"set_balance()": "48884",
						"withdraw_funds()": "infinite"
					}
				},
				"methodIdentifiers": {
					"addressList(address,uint256)": "487f3fa7",
					"get_balance()": "c1cfb99a",
					"set_balance()": "2c4b5586",
					"withdraw_funds()": "2b8f2042"
				}
			},
			"storageLayout": {
				"storage": [
					{
						"astId": 7,
						"contract": "contracts/1_Storage.sol:timelock",
						"label": "addressList",
						"offset": 0,
						"slot": "0",
						"type": "t_mapping(t_address,t_array(t_uint256)dyn_storage)"
					}
				],
				"types": {
					"t_address": {
						"encoding": "inplace",
						"label": "address",
						"numberOfBytes": "20"
					},
					"t_array(t_uint256)dyn_storage": {
						"base": "t_uint256",
						"encoding": "dynamic_array",
						"label": "uint256[]",
						"numberOfBytes": "32"
					},
					"t_mapping(t_address,t_array(t_uint256)dyn_storage)": {
						"encoding": "mapping",
						"key": "t_address",
						"label": "mapping(address => uint256[])",
						"numberOfBytes": "32",
						"value": "t_array(t_uint256)dyn_storage"
					},
					"t_uint256": {
						"encoding": "inplace",
						"label": "uint256",
						"numberOfBytes": "32"
					}
				}
			},
			"userdoc": {
				"kind": "user",
				"methods": {},
				"version": 1
			}
		}
	}
}