{
	"contracts/1_Storage.sol": {
		"timelock": {
			"abi": [
				{
					"inputs": [],
					"name": "get_balance",
					"outputs": [
						{
							"internalType": "uint256",
							"name": "",
							"type": "uint256"
						}
					],
					"stateMutability": "view",
					"type": "function"
				},
				{
					"inputs": [],
					"name": "set_balance",
					"outputs": [],
					"stateMutability": "payable",
					"type": "function"
				}
			],
			"devdoc": {
				"kind": "dev",
				"methods": {},
				"version": 1
			},
			"evm": {
				"assembly": "    /* \"contracts/1_Storage.sol\":182:588  contract timelock{... */\n  mstore(0x40, 0x80)\n  callvalue\n  dup1\n  iszero\n  tag_1\n  jumpi\n  0x00\n  dup1\n  revert\ntag_1:\n  pop\n  dataSize(sub_0)\n  dup1\n  dataOffset(sub_0)\n  0x00\n  codecopy\n  0x00\n  return\nstop\n\nsub_0: assembly {\n        /* \"contracts/1_Storage.sol\":182:588  contract timelock{... */\n      mstore(0x40, 0x80)\n      jumpi(tag_1, lt(calldatasize, 0x04))\n      shr(0xe0, calldataload(0x00))\n      dup1\n      0x2c4b5586\n      eq\n      tag_2\n      jumpi\n      dup1\n      0xc1cfb99a\n      eq\n      tag_3\n      jumpi\n    tag_1:\n      0x00\n      dup1\n      revert\n        /* \"contracts/1_Storage.sol\":390:464  function set_balance() public payable {... */\n    tag_2:\n      tag_4\n      tag_5\n      jump\t// in\n    tag_4:\n      stop\n        /* \"contracts/1_Storage.sol\":470:553  function get_balance() external view returns(uint){ ... */\n    tag_3:\n      callvalue\n      dup1\n      iszero\n      tag_6\n      jumpi\n      0x00\n      dup1\n      revert\n    tag_6:\n      pop\n      tag_7\n      tag_8\n      jump\t// in\n    tag_7:\n      mload(0x40)\n      tag_9\n      swap2\n      swap1\n      tag_10\n      jump\t// in\n    tag_9:\n      mload(0x40)\n      dup1\n      swap2\n      sub\n      swap1\n      return\n        /* \"contracts/1_Storage.sol\":390:464  function set_balance() public payable {... */\n    tag_5:\n        /* \"contracts/1_Storage.sol\":448:457  msg.value */\n      callvalue\n        /* \"contracts/1_Storage.sol\":438:445  balance */\n      0x00\n        /* \"contracts/1_Storage.sol\":438:457  balance = msg.value */\n      dup2\n      swap1\n      sstore\n      pop\n        /* \"contracts/1_Storage.sol\":390:464  function set_balance() public payable {... */\n      jump\t// out\n        /* \"contracts/1_Storage.sol\":470:553  function get_balance() external view returns(uint){ ... */\n    tag_8:\n        /* \"contracts/1_Storage.sol\":515:519  uint */\n      0x00\n        /* \"contracts/1_Storage.sol\":538:545  balance */\n      dup1\n      sload\n        /* \"contracts/1_Storage.sol\":531:546  return(balance) */\n      swap1\n      pop\n        /* \"contracts/1_Storage.sol\":470:553  function get_balance() external view returns(uint){ ... */\n      swap1\n      jump\t// out\n        /* \"#utility.yul\":7:125   */\n    tag_14:\n        /* \"#utility.yul\":94:118   */\n      tag_16\n        /* \"#utility.yul\":112:117   */\n      dup2\n        /* \"#utility.yul\":94:118   */\n      tag_17\n      jump\t// in\n    tag_16:\n        /* \"#utility.yul\":89:92   */\n      dup3\n        /* \"#utility.yul\":82:119   */\n      mstore\n        /* \"#utility.yul\":7:125   */\n      pop\n      pop\n      jump\t// out\n        /* \"#utility.yul\":131:353   */\n    tag_10:\n        /* \"#utility.yul\":224:228   */\n      0x00\n        /* \"#utility.yul\":262:264   */\n      0x20\n        /* \"#utility.yul\":251:260   */\n      dup3\n        /* \"#utility.yul\":247:265   */\n      add\n        /* \"#utility.yul\":239:265   */\n      swap1\n      pop\n        /* \"#utility.yul\":275:346   */\n      tag_19\n        /* \"#utility.yul\":343:344   */\n      0x00\n        /* \"#utility.yul\":332:341   */\n      dup4\n        /* \"#utility.yul\":328:345   */\n      add\n        /* \"#utility.yul\":319:325   */\n      dup5\n        /* \"#utility.yul\":275:346   */\n      tag_14\n      jump\t// in\n    tag_19:\n        /* \"#utility.yul\":131:353   */\n      swap3\n      swap2\n      pop\n      pop\n      jump\t// out\n        /* \"#utility.yul\":359:436   */\n    tag_17:\n        /* \"#utility.yul\":396:403   */\n      0x00\n        /* \"#utility.yul\":425:430   */\n      dup2\n        /* \"#utility.yul\":414:430   */\n      swap1\n      pop\n        /* \"#utility.yul\":359:436   */\n      swap2\n      swap1\n      pop\n      jump\t// out\n\n    auxdata: 0xa26469706673582212201cb1b3fd2c2b33770591a4dbdb87ed0e4ad38bf2aad03488ecb84ac7b585034964736f6c63430008070033\n}\n",
				"bytecode": {
					"linkReferences": {},
					"object": "608060405234801561001057600080fd5b5060d18061001f6000396000f3fe60806040526004361060265760003560e01c80632c4b558614602b578063c1cfb99a146033575b600080fd5b60316059565b005b348015603e57600080fd5b5060456062565b604051605091906078565b60405180910390f35b34600081905550565b60008054905090565b6072816091565b82525050565b6000602082019050608b6000830184606b565b92915050565b600081905091905056fea26469706673582212201cb1b3fd2c2b33770591a4dbdb87ed0e4ad38bf2aad03488ecb84ac7b585034964736f6c63430008070033",
					"opcodes": "PUSH1 0x80 PUSH1 0x40 MSTORE CALLVALUE DUP1 ISZERO PUSH2 0x10 JUMPI PUSH1 0x0 DUP1 REVERT JUMPDEST POP PUSH1 0xD1 DUP1 PUSH2 0x1F PUSH1 0x0 CODECOPY PUSH1 0x0 RETURN INVALID PUSH1 0x80 PUSH1 0x40 MSTORE PUSH1 0x4 CALLDATASIZE LT PUSH1 0x26 JUMPI PUSH1 0x0 CALLDATALOAD PUSH1 0xE0 SHR DUP1 PUSH4 0x2C4B5586 EQ PUSH1 0x2B JUMPI DUP1 PUSH4 0xC1CFB99A EQ PUSH1 0x33 JUMPI JUMPDEST PUSH1 0x0 DUP1 REVERT JUMPDEST PUSH1 0x31 PUSH1 0x59 JUMP JUMPDEST STOP JUMPDEST CALLVALUE DUP1 ISZERO PUSH1 0x3E JUMPI PUSH1 0x0 DUP1 REVERT JUMPDEST POP PUSH1 0x45 PUSH1 0x62 JUMP JUMPDEST PUSH1 0x40 MLOAD PUSH1 0x50 SWAP2 SWAP1 PUSH1 0x78 JUMP JUMPDEST PUSH1 0x40 MLOAD DUP1 SWAP2 SUB SWAP1 RETURN JUMPDEST CALLVALUE PUSH1 0x0 DUP2 SWAP1 SSTORE POP JUMP JUMPDEST PUSH1 0x0 DUP1 SLOAD SWAP1 POP SWAP1 JUMP JUMPDEST PUSH1 0x72 DUP2 PUSH1 0x91 JUMP JUMPDEST DUP3 MSTORE POP POP JUMP JUMPDEST PUSH1 0x0 PUSH1 0x20 DUP3 ADD SWAP1 POP PUSH1 0x8B PUSH1 0x0 DUP4 ADD DUP5 PUSH1 0x6B JUMP JUMPDEST SWAP3 SWAP2 POP POP JUMP JUMPDEST PUSH1 0x0 DUP2 SWAP1 POP SWAP2 SWAP1 POP JUMP INVALID LOG2 PUSH5 0x6970667358 0x22 SLT KECCAK256 SHR 0xB1 0xB3 REVERT 0x2C 0x2B CALLER PUSH24 0x591A4DBDB87ED0E4AD38BF2AAD03488ECB84AC7B5850349 PUSH5 0x736F6C6343 STOP ADDMOD SMOD STOP CALLER "
				},
				"gasEstimates": {
					"creation": {
						"codeDepositCost": "41800",
						"executionCost": "93",
						"totalCost": "41893"
					},
					"external": {
						"get_balance()": "2437",
						"set_balance()": "22211"
					}
				},
				"methodIdentifiers": {
					"get_balance()": "c1cfb99a",
					"set_balance()": "2c4b5586"
				}
			},
			"storageLayout": {
				"storage": [
					{
						"astId": 4,
						"contract": "contracts/1_Storage.sol:timelock",
						"label": "balance",
						"offset": 0,
						"slot": "0",
						"type": "t_uint256"
					}
				],
				"types": {
					"t_uint256": {
						"encoding": "inplace",
						"label": "uint256",
						"numberOfBytes": "32"
					}
				}
			},
			"userdoc": {
				"kind": "user",
				"methods": {},
				"version": 1
			}
		}
	}
}