{
	"contracts/1_Storage.sol": {
		"timelock": {
			"abi": [
				{
					"inputs": [
						{
							"internalType": "uint256",
							"name": "input_ether",
							"type": "uint256"
						}
					],
					"name": "set_balance",
					"outputs": [],
					"stateMutability": "nonpayable",
					"type": "function"
				}
			],
			"devdoc": {
				"kind": "dev",
				"methods": {},
				"version": 1
			},
			"evm": {
				"assembly": "    /* \"contracts/1_Storage.sol\":182:469  contract timelock{... */\n  mstore(0x40, 0x80)\n  callvalue\n  dup1\n  iszero\n  tag_1\n  jumpi\n  0x00\n  dup1\n  revert\ntag_1:\n  pop\n  dataSize(sub_0)\n  dup1\n  dataOffset(sub_0)\n  0x00\n  codecopy\n  0x00\n  return\nstop\n\nsub_0: assembly {\n        /* \"contracts/1_Storage.sol\":182:469  contract timelock{... */\n      mstore(0x40, 0x80)\n      callvalue\n      dup1\n      iszero\n      tag_1\n      jumpi\n      0x00\n      dup1\n      revert\n    tag_1:\n      pop\n      jumpi(tag_2, lt(calldatasize, 0x04))\n      shr(0xe0, calldataload(0x00))\n      dup1\n      0x6add0acf\n      eq\n      tag_3\n      jumpi\n    tag_2:\n      0x00\n      dup1\n      revert\n        /* \"contracts/1_Storage.sol\":381:466  function set_balance(uint input_ether) external{... */\n    tag_3:\n      tag_4\n      0x04\n      dup1\n      calldatasize\n      sub\n      dup2\n      add\n      swap1\n      tag_5\n      swap2\n      swap1\n      tag_6\n      jump\t// in\n    tag_5:\n      tag_7\n      jump\t// in\n    tag_4:\n      stop\n    tag_7:\n        /* \"contracts/1_Storage.sol\":448:459  input_ether */\n      dup1\n        /* \"contracts/1_Storage.sol\":438:445  balance */\n      0x00\n        /* \"contracts/1_Storage.sol\":438:459  balance = input_ether */\n      dup2\n      swap1\n      sstore\n      pop\n        /* \"contracts/1_Storage.sol\":381:466  function set_balance(uint input_ether) external{... */\n      pop\n      jump\t// out\n        /* \"#utility.yul\":7:146   */\n    tag_10:\n        /* \"#utility.yul\":53:58   */\n      0x00\n        /* \"#utility.yul\":91:97   */\n      dup2\n        /* \"#utility.yul\":78:98   */\n      calldataload\n        /* \"#utility.yul\":69:98   */\n      swap1\n      pop\n        /* \"#utility.yul\":107:140   */\n      tag_12\n        /* \"#utility.yul\":134:139   */\n      dup2\n        /* \"#utility.yul\":107:140   */\n      tag_13\n      jump\t// in\n    tag_12:\n        /* \"#utility.yul\":7:146   */\n      swap3\n      swap2\n      pop\n      pop\n      jump\t// out\n        /* \"#utility.yul\":152:481   */\n    tag_6:\n        /* \"#utility.yul\":211:217   */\n      0x00\n        /* \"#utility.yul\":260:262   */\n      0x20\n        /* \"#utility.yul\":248:257   */\n      dup3\n        /* \"#utility.yul\":239:246   */\n      dup5\n        /* \"#utility.yul\":235:258   */\n      sub\n        /* \"#utility.yul\":231:263   */\n      slt\n        /* \"#utility.yul\":228:347   */\n      iszero\n      tag_15\n      jumpi\n        /* \"#utility.yul\":266:345   */\n      tag_16\n      tag_17\n      jump\t// in\n    tag_16:\n        /* \"#utility.yul\":228:347   */\n    tag_15:\n        /* \"#utility.yul\":386:387   */\n      0x00\n        /* \"#utility.yul\":411:464   */\n      tag_18\n        /* \"#utility.yul\":456:463   */\n      dup5\n        /* \"#utility.yul\":447:453   */\n      dup3\n        /* \"#utility.yul\":436:445   */\n      dup6\n        /* \"#utility.yul\":432:454   */\n      add\n        /* \"#utility.yul\":411:464   */\n      tag_10\n      jump\t// in\n    tag_18:\n        /* \"#utility.yul\":401:464   */\n      swap2\n      pop\n        /* \"#utility.yul\":357:474   */\n      pop\n        /* \"#utility.yul\":152:481   */\n      swap3\n      swap2\n      pop\n      pop\n      jump\t// out\n        /* \"#utility.yul\":568:645   */\n    tag_21:\n        /* \"#utility.yul\":605:612   */\n      0x00\n        /* \"#utility.yul\":634:639   */\n      dup2\n        /* \"#utility.yul\":623:639   */\n      swap1\n      pop\n        /* \"#utility.yul\":568:645   */\n      swap2\n      swap1\n      pop\n      jump\t// out\n        /* \"#utility.yul\":774:891   */\n    tag_17:\n        /* \"#utility.yul\":883:884   */\n      0x00\n        /* \"#utility.yul\":880:881   */\n      dup1\n        /* \"#utility.yul\":873:885   */\n      revert\n        /* \"#utility.yul\":897:1019   */\n    tag_13:\n        /* \"#utility.yul\":970:994   */\n      tag_27\n        /* \"#utility.yul\":988:993   */\n      dup2\n        /* \"#utility.yul\":970:994   */\n      tag_21\n      jump\t// in\n    tag_27:\n        /* \"#utility.yul\":963:968   */\n      dup2\n        /* \"#utility.yul\":960:995   */\n      eq\n        /* \"#utility.yul\":950:1013   */\n      tag_28\n      jumpi\n        /* \"#utility.yul\":1009:1010   */\n      0x00\n        /* \"#utility.yul\":1006:1007   */\n      dup1\n        /* \"#utility.yul\":999:1011   */\n      revert\n        /* \"#utility.yul\":950:1013   */\n    tag_28:\n        /* \"#utility.yul\":897:1019   */\n      pop\n      jump\t// out\n\n    auxdata: 0xa2646970667358221220d7568b2c415c806cbab6df9e25582148451a678089e9142af8fc8b9edddc736564736f6c63430008070033\n}\n",
				"bytecode": {
					"linkReferences": {},
					"object": "608060405234801561001057600080fd5b5060e38061001f6000396000f3fe6080604052348015600f57600080fd5b506004361060285760003560e01c80636add0acf14602d575b600080fd5b60436004803603810190603f91906062565b6045565b005b8060008190555050565b600081359050605c816099565b92915050565b60006020828403121560755760746094565b5b6000608184828501604f565b91505092915050565b6000819050919050565b600080fd5b60a081608a565b811460aa57600080fd5b5056fea2646970667358221220d7568b2c415c806cbab6df9e25582148451a678089e9142af8fc8b9edddc736564736f6c63430008070033",
					"opcodes": "PUSH1 0x80 PUSH1 0x40 MSTORE CALLVALUE DUP1 ISZERO PUSH2 0x10 JUMPI PUSH1 0x0 DUP1 REVERT JUMPDEST POP PUSH1 0xE3 DUP1 PUSH2 0x1F PUSH1 0x0 CODECOPY PUSH1 0x0 RETURN INVALID PUSH1 0x80 PUSH1 0x40 MSTORE CALLVALUE DUP1 ISZERO PUSH1 0xF JUMPI PUSH1 0x0 DUP1 REVERT JUMPDEST POP PUSH1 0x4 CALLDATASIZE LT PUSH1 0x28 JUMPI PUSH1 0x0 CALLDATALOAD PUSH1 0xE0 SHR DUP1 PUSH4 0x6ADD0ACF EQ PUSH1 0x2D JUMPI JUMPDEST PUSH1 0x0 DUP1 REVERT JUMPDEST PUSH1 0x43 PUSH1 0x4 DUP1 CALLDATASIZE SUB DUP2 ADD SWAP1 PUSH1 0x3F SWAP2 SWAP1 PUSH1 0x62 JUMP JUMPDEST PUSH1 0x45 JUMP JUMPDEST STOP JUMPDEST DUP1 PUSH1 0x0 DUP2 SWAP1 SSTORE POP POP JUMP JUMPDEST PUSH1 0x0 DUP2 CALLDATALOAD SWAP1 POP PUSH1 0x5C DUP2 PUSH1 0x99 JUMP JUMPDEST SWAP3 SWAP2 POP POP JUMP JUMPDEST PUSH1 0x0 PUSH1 0x20 DUP3 DUP5 SUB SLT ISZERO PUSH1 0x75 JUMPI PUSH1 0x74 PUSH1 0x94 JUMP JUMPDEST JUMPDEST PUSH1 0x0 PUSH1 0x81 DUP5 DUP3 DUP6 ADD PUSH1 0x4F JUMP JUMPDEST SWAP2 POP POP SWAP3 SWAP2 POP POP JUMP JUMPDEST PUSH1 0x0 DUP2 SWAP1 POP SWAP2 SWAP1 POP JUMP JUMPDEST PUSH1 0x0 DUP1 REVERT JUMPDEST PUSH1 0xA0 DUP2 PUSH1 0x8A JUMP JUMPDEST DUP2 EQ PUSH1 0xAA JUMPI PUSH1 0x0 DUP1 REVERT JUMPDEST POP JUMP INVALID LOG2 PUSH5 0x6970667358 0x22 SLT KECCAK256 0xD7 JUMP DUP12 0x2C COINBASE 0x5C DUP1 PUSH13 0xBAB6DF9E25582148451A678089 0xE9 EQ 0x2A 0xF8 0xFC DUP12 SWAP15 0xDD 0xDC PUSH20 0x6564736F6C634300080700330000000000000000 "
				},
				"gasEstimates": {
					"creation": {
						"codeDepositCost": "45400",
						"executionCost": "99",
						"totalCost": "45499"
					},
					"external": {
						"set_balance(uint256)": "22498"
					}
				},
				"methodIdentifiers": {
					"set_balance(uint256)": "6add0acf"
				}
			},
			"storageLayout": {
				"storage": [
					{
						"astId": 4,
						"contract": "contracts/1_Storage.sol:timelock",
						"label": "balance",
						"offset": 0,
						"slot": "0",
						"type": "t_uint256"
					}
				],
				"types": {
					"t_uint256": {
						"encoding": "inplace",
						"label": "uint256",
						"numberOfBytes": "32"
					}
				}
			},
			"userdoc": {
				"kind": "user",
				"methods": {},
				"version": 1
			}
		}
	}
}