{
	"contracts/1_Storage.sol": {
		"timelock": {
			"abi": [
				{
					"inputs": [
						{
							"internalType": "address",
							"name": "",
							"type": "address"
						},
						{
							"internalType": "uint256",
							"name": "",
							"type": "uint256"
						}
					],
					"name": "addressList",
					"outputs": [
						{
							"internalType": "uint256",
							"name": "",
							"type": "uint256"
						}
					],
					"stateMutability": "view",
					"type": "function"
				},
				{
					"inputs": [],
					"name": "get_balance",
					"outputs": [
						{
							"internalType": "uint256",
							"name": "",
							"type": "uint256"
						}
					],
					"stateMutability": "view",
					"type": "function"
				},
				{
					"inputs": [],
					"name": "set_balance",
					"outputs": [],
					"stateMutability": "payable",
					"type": "function"
				},
				{
					"inputs": [],
					"name": "withdraw_funds",
					"outputs": [],
					"stateMutability": "payable",
					"type": "function"
				}
			],
			"devdoc": {
				"kind": "dev",
				"methods": {},
				"version": 1
			},
			"evm": {
				"assembly": "    /* \"contracts/1_Storage.sol\":182:963  contract timelock{... */\n  mstore(0x40, 0x80)\n  callvalue\n  dup1\n  iszero\n  tag_1\n  jumpi\n  0x00\n  dup1\n  revert\ntag_1:\n  pop\n  dataSize(sub_0)\n  dup1\n  dataOffset(sub_0)\n  0x00\n  codecopy\n  0x00\n  return\nstop\n\nsub_0: assembly {\n        /* \"contracts/1_Storage.sol\":182:963  contract timelock{... */\n      mstore(0x40, 0x80)\n      jumpi(tag_1, lt(calldatasize, 0x04))\n      shr(0xe0, calldataload(0x00))\n      dup1\n      0x2b8f2042\n      eq\n      tag_2\n      jumpi\n      dup1\n      0x2c4b5586\n      eq\n      tag_3\n      jumpi\n      dup1\n      0x487f3fa7\n      eq\n      tag_4\n      jumpi\n      dup1\n      0xc1cfb99a\n      eq\n      tag_5\n      jumpi\n    tag_1:\n      0x00\n      dup1\n      revert\n        /* \"contracts/1_Storage.sol\":741:961  function withdraw_funds() external payable... */\n    tag_2:\n      tag_6\n      tag_7\n      jump\t// in\n    tag_6:\n      stop\n        /* \"contracts/1_Storage.sol\":414:581  function set_balance() external payable {... */\n    tag_3:\n      tag_8\n      tag_9\n      jump\t// in\n    tag_8:\n      stop\n        /* \"contracts/1_Storage.sol\":362:407  mapping(address => uint[]) public addressList */\n    tag_4:\n      callvalue\n      dup1\n      iszero\n      tag_10\n      jumpi\n      0x00\n      dup1\n      revert\n    tag_10:\n      pop\n      tag_11\n      0x04\n      dup1\n      calldatasize\n      sub\n      dup2\n      add\n      swap1\n      tag_12\n      swap2\n      swap1\n      tag_13\n      jump\t// in\n    tag_12:\n      tag_14\n      jump\t// in\n    tag_11:\n      mload(0x40)\n      tag_15\n      swap2\n      swap1\n      tag_16\n      jump\t// in\n    tag_15:\n      mload(0x40)\n      dup1\n      swap2\n      sub\n      swap1\n      return\n        /* \"contracts/1_Storage.sol\":587:735  function get_balance() external view returns(uint){ ... */\n    tag_5:\n      callvalue\n      dup1\n      iszero\n      tag_17\n      jumpi\n      0x00\n      dup1\n      revert\n    tag_17:\n      pop\n      tag_18\n      tag_19\n      jump\t// in\n    tag_18:\n      mload(0x40)\n      tag_20\n      swap2\n      swap1\n      tag_16\n      jump\t// in\n    tag_20:\n      mload(0x40)\n      dup1\n      swap2\n      sub\n      swap1\n      return\n        /* \"contracts/1_Storage.sol\":741:961  function withdraw_funds() external payable... */\n    tag_7:\n        /* \"contracts/1_Storage.sol\":863:869  7 days */\n      0x093a80\n        /* \"contracts/1_Storage.sol\":824:835  addressList */\n      0x00\n        /* \"contracts/1_Storage.sol\":824:856  addressList[payable(msg.sender)] */\n      dup1\n        /* \"contracts/1_Storage.sol\":844:854  msg.sender */\n      caller\n        /* \"contracts/1_Storage.sol\":824:856  addressList[payable(msg.sender)] */\n      0xffffffffffffffffffffffffffffffffffffffff\n      and\n      0xffffffffffffffffffffffffffffffffffffffff\n      and\n      dup2\n      mstore\n      0x20\n      add\n      swap1\n      dup2\n      mstore\n      0x20\n      add\n      0x00\n      keccak256\n        /* \"contracts/1_Storage.sol\":857:858  1 */\n      0x01\n        /* \"contracts/1_Storage.sol\":824:859  addressList[payable(msg.sender)][1] */\n      dup2\n      sload\n      dup2\n      lt\n      tag_22\n      jumpi\n      tag_23\n      tag_24\n      jump\t// in\n    tag_23:\n    tag_22:\n      swap1\n      0x00\n      mstore\n      keccak256(0x00, 0x20)\n      add\n      sload\n        /* \"contracts/1_Storage.sol\":806:821  block.timestamp */\n      timestamp\n        /* \"contracts/1_Storage.sol\":806:859  block.timestamp - addressList[payable(msg.sender)][1] */\n      tag_26\n      swap2\n      swap1\n      tag_27\n      jump\t// in\n    tag_26:\n        /* \"contracts/1_Storage.sol\":806:869  block.timestamp - addressList[payable(msg.sender)][1] == 7 days */\n      eq\n        /* \"contracts/1_Storage.sol\":798:870  require(block.timestamp - addressList[payable(msg.sender)][1] == 7 days) */\n      tag_28\n      jumpi\n      0x00\n      dup1\n      revert\n    tag_28:\n        /* \"contracts/1_Storage.sol\":897:907  msg.sender */\n      caller\n        /* \"contracts/1_Storage.sol\":889:917  payable(msg.sender).transfer */\n      0xffffffffffffffffffffffffffffffffffffffff\n      and\n        /* \"contracts/1_Storage.sol\":889:954  payable(msg.sender).transfer(addressList[payable(msg.sender)][0]) */\n      0x08fc\n        /* \"contracts/1_Storage.sol\":918:929  addressList */\n      0x00\n        /* \"contracts/1_Storage.sol\":918:950  addressList[payable(msg.sender)] */\n      dup1\n        /* \"contracts/1_Storage.sol\":938:948  msg.sender */\n      caller\n        /* \"contracts/1_Storage.sol\":918:950  addressList[payable(msg.sender)] */\n      0xffffffffffffffffffffffffffffffffffffffff\n      and\n      0xffffffffffffffffffffffffffffffffffffffff\n      and\n      dup2\n      mstore\n      0x20\n      add\n      swap1\n      dup2\n      mstore\n      0x20\n      add\n      0x00\n      keccak256\n        /* \"contracts/1_Storage.sol\":951:952  0 */\n      0x00\n        /* \"contracts/1_Storage.sol\":918:953  addressList[payable(msg.sender)][0] */\n      dup2\n      sload\n      dup2\n      lt\n      tag_29\n      jumpi\n      tag_30\n      tag_24\n      jump\t// in\n    tag_30:\n    tag_29:\n      swap1\n      0x00\n      mstore\n      keccak256(0x00, 0x20)\n      add\n      sload\n        /* \"contracts/1_Storage.sol\":889:954  payable(msg.sender).transfer(addressList[payable(msg.sender)][0]) */\n      swap1\n      dup2\n      iszero\n      mul\n      swap1\n      mload(0x40)\n      0x00\n      mload(0x40)\n      dup1\n      dup4\n      sub\n      dup2\n      dup6\n      dup9\n      dup9\n      call\n      swap4\n      pop\n      pop\n      pop\n      pop\n      iszero\n      dup1\n      iszero\n      tag_33\n      jumpi\n      returndatasize\n      0x00\n      dup1\n      returndatacopy\n      revert(0x00, returndatasize)\n    tag_33:\n      pop\n        /* \"contracts/1_Storage.sol\":741:961  function withdraw_funds() external payable... */\n      jump\t// out\n        /* \"contracts/1_Storage.sol\":414:581  function set_balance() external payable {... */\n    tag_9:\n        /* \"contracts/1_Storage.sol\":502:511  msg.value */\n      callvalue\n        /* \"contracts/1_Storage.sol\":464:475  addressList */\n      0x00\n        /* \"contracts/1_Storage.sol\":464:496  addressList[payable(msg.sender)] */\n      dup1\n        /* \"contracts/1_Storage.sol\":484:494  msg.sender */\n      caller\n        /* \"contracts/1_Storage.sol\":464:496  addressList[payable(msg.sender)] */\n      0xffffffffffffffffffffffffffffffffffffffff\n      and\n      0xffffffffffffffffffffffffffffffffffffffff\n      and\n      dup2\n      mstore\n      0x20\n      add\n      swap1\n      dup2\n      mstore\n      0x20\n      add\n      0x00\n      keccak256\n        /* \"contracts/1_Storage.sol\":497:498  0 */\n      0x00\n        /* \"contracts/1_Storage.sol\":464:499  addressList[payable(msg.sender)][0] */\n      dup2\n      sload\n      dup2\n      lt\n      tag_35\n      jumpi\n      tag_36\n      tag_24\n      jump\t// in\n    tag_36:\n    tag_35:\n      swap1\n      0x00\n      mstore\n      keccak256(0x00, 0x20)\n      add\n        /* \"contracts/1_Storage.sol\":464:511  addressList[payable(msg.sender)][0] = msg.value */\n      dup2\n      swap1\n      sstore\n      pop\n        /* \"contracts/1_Storage.sol\":559:574  block.timestamp */\n      timestamp\n        /* \"contracts/1_Storage.sol\":521:532  addressList */\n      0x00\n        /* \"contracts/1_Storage.sol\":521:553  addressList[payable(msg.sender)] */\n      dup1\n        /* \"contracts/1_Storage.sol\":541:551  msg.sender */\n      caller\n        /* \"contracts/1_Storage.sol\":521:553  addressList[payable(msg.sender)] */\n      0xffffffffffffffffffffffffffffffffffffffff\n      and\n      0xffffffffffffffffffffffffffffffffffffffff\n      and\n      dup2\n      mstore\n      0x20\n      add\n      swap1\n      dup2\n      mstore\n      0x20\n      add\n      0x00\n      keccak256\n        /* \"contracts/1_Storage.sol\":554:555  1 */\n      0x01\n        /* \"contracts/1_Storage.sol\":521:556  addressList[payable(msg.sender)][1] */\n      dup2\n      sload\n      dup2\n      lt\n      tag_38\n      jumpi\n      tag_39\n      tag_24\n      jump\t// in\n    tag_39:\n    tag_38:\n      swap1\n      0x00\n      mstore\n      keccak256(0x00, 0x20)\n      add\n        /* \"contracts/1_Storage.sol\":521:574  addressList[payable(msg.sender)][1] = block.timestamp */\n      dup2\n      swap1\n      sstore\n      pop\n        /* \"contracts/1_Storage.sol\":414:581  function set_balance() external payable {... */\n      jump\t// out\n        /* \"contracts/1_Storage.sol\":362:407  mapping(address => uint[]) public addressList */\n    tag_14:\n      mstore(0x20, 0x00)\n      dup2\n      0x00\n      mstore\n      keccak256(0x00, 0x40)\n      dup2\n      dup2\n      sload\n      dup2\n      lt\n      tag_41\n      jumpi\n      0x00\n      dup1\n      revert\n    tag_41:\n      swap1\n      0x00\n      mstore\n      keccak256(0x00, 0x20)\n      add\n      0x00\n      swap2\n      pop\n      swap2\n      pop\n      pop\n      sload\n      dup2\n      jump\t// out\n        /* \"contracts/1_Storage.sol\":587:735  function get_balance() external view returns(uint){ ... */\n    tag_19:\n        /* \"contracts/1_Storage.sol\":632:636  uint */\n      0x00\n        /* \"contracts/1_Storage.sol\":692:703  addressList */\n      dup1\n        /* \"contracts/1_Storage.sol\":692:724  addressList[payable(msg.sender)] */\n      0x00\n        /* \"contracts/1_Storage.sol\":712:722  msg.sender */\n      caller\n        /* \"contracts/1_Storage.sol\":692:724  addressList[payable(msg.sender)] */\n      0xffffffffffffffffffffffffffffffffffffffff\n      and\n      0xffffffffffffffffffffffffffffffffffffffff\n      and\n      dup2\n      mstore\n      0x20\n      add\n      swap1\n      dup2\n      mstore\n      0x20\n      add\n      0x00\n      keccak256\n        /* \"contracts/1_Storage.sol\":725:726  0 */\n      0x00\n        /* \"contracts/1_Storage.sol\":692:727  addressList[payable(msg.sender)][0] */\n      dup2\n      sload\n      dup2\n      lt\n      tag_44\n      jumpi\n      tag_45\n      tag_24\n      jump\t// in\n    tag_45:\n    tag_44:\n      swap1\n      0x00\n      mstore\n      keccak256(0x00, 0x20)\n      add\n      sload\n        /* \"contracts/1_Storage.sol\":685:728  return(addressList[payable(msg.sender)][0]) */\n      swap1\n      pop\n        /* \"contracts/1_Storage.sol\":587:735  function get_balance() external view returns(uint){ ... */\n      swap1\n      jump\t// out\n        /* \"#utility.yul\":7:146   */\n    tag_48:\n        /* \"#utility.yul\":53:58   */\n      0x00\n        /* \"#utility.yul\":91:97   */\n      dup2\n        /* \"#utility.yul\":78:98   */\n      calldataload\n        /* \"#utility.yul\":69:98   */\n      swap1\n      pop\n        /* \"#utility.yul\":107:140   */\n      tag_50\n        /* \"#utility.yul\":134:139   */\n      dup2\n        /* \"#utility.yul\":107:140   */\n      tag_51\n      jump\t// in\n    tag_50:\n        /* \"#utility.yul\":7:146   */\n      swap3\n      swap2\n      pop\n      pop\n      jump\t// out\n        /* \"#utility.yul\":152:291   */\n    tag_52:\n        /* \"#utility.yul\":198:203   */\n      0x00\n        /* \"#utility.yul\":236:242   */\n      dup2\n        /* \"#utility.yul\":223:243   */\n      calldataload\n        /* \"#utility.yul\":214:243   */\n      swap1\n      pop\n        /* \"#utility.yul\":252:285   */\n      tag_54\n        /* \"#utility.yul\":279:284   */\n      dup2\n        /* \"#utility.yul\":252:285   */\n      tag_55\n      jump\t// in\n    tag_54:\n        /* \"#utility.yul\":152:291   */\n      swap3\n      swap2\n      pop\n      pop\n      jump\t// out\n        /* \"#utility.yul\":297:771   */\n    tag_13:\n        /* \"#utility.yul\":365:371   */\n      0x00\n        /* \"#utility.yul\":373:379   */\n      dup1\n        /* \"#utility.yul\":422:424   */\n      0x40\n        /* \"#utility.yul\":410:419   */\n      dup4\n        /* \"#utility.yul\":401:408   */\n      dup6\n        /* \"#utility.yul\":397:420   */\n      sub\n        /* \"#utility.yul\":393:425   */\n      slt\n        /* \"#utility.yul\":390:509   */\n      iszero\n      tag_57\n      jumpi\n        /* \"#utility.yul\":428:507   */\n      tag_58\n      tag_59\n      jump\t// in\n    tag_58:\n        /* \"#utility.yul\":390:509   */\n    tag_57:\n        /* \"#utility.yul\":548:549   */\n      0x00\n        /* \"#utility.yul\":573:626   */\n      tag_60\n        /* \"#utility.yul\":618:625   */\n      dup6\n        /* \"#utility.yul\":609:615   */\n      dup3\n        /* \"#utility.yul\":598:607   */\n      dup7\n        /* \"#utility.yul\":594:616   */\n      add\n        /* \"#utility.yul\":573:626   */\n      tag_48\n      jump\t// in\n    tag_60:\n        /* \"#utility.yul\":563:626   */\n      swap3\n      pop\n        /* \"#utility.yul\":519:636   */\n      pop\n        /* \"#utility.yul\":675:677   */\n      0x20\n        /* \"#utility.yul\":701:754   */\n      tag_61\n        /* \"#utility.yul\":746:753   */\n      dup6\n        /* \"#utility.yul\":737:743   */\n      dup3\n        /* \"#utility.yul\":726:735   */\n      dup7\n        /* \"#utility.yul\":722:744   */\n      add\n        /* \"#utility.yul\":701:754   */\n      tag_52\n      jump\t// in\n    tag_61:\n        /* \"#utility.yul\":691:754   */\n      swap2\n      pop\n        /* \"#utility.yul\":646:764   */\n      pop\n        /* \"#utility.yul\":297:771   */\n      swap3\n      pop\n      swap3\n      swap1\n      pop\n      jump\t// out\n        /* \"#utility.yul\":777:895   */\n    tag_62:\n        /* \"#utility.yul\":864:888   */\n      tag_64\n        /* \"#utility.yul\":882:887   */\n      dup2\n        /* \"#utility.yul\":864:888   */\n      tag_65\n      jump\t// in\n    tag_64:\n        /* \"#utility.yul\":859:862   */\n      dup3\n        /* \"#utility.yul\":852:889   */\n      mstore\n        /* \"#utility.yul\":777:895   */\n      pop\n      pop\n      jump\t// out\n        /* \"#utility.yul\":901:1123   */\n    tag_16:\n        /* \"#utility.yul\":994:998   */\n      0x00\n        /* \"#utility.yul\":1032:1034   */\n      0x20\n        /* \"#utility.yul\":1021:1030   */\n      dup3\n        /* \"#utility.yul\":1017:1035   */\n      add\n        /* \"#utility.yul\":1009:1035   */\n      swap1\n      pop\n        /* \"#utility.yul\":1045:1116   */\n      tag_67\n        /* \"#utility.yul\":1113:1114   */\n      0x00\n        /* \"#utility.yul\":1102:1111   */\n      dup4\n        /* \"#utility.yul\":1098:1115   */\n      add\n        /* \"#utility.yul\":1089:1095   */\n      dup5\n        /* \"#utility.yul\":1045:1116   */\n      tag_62\n      jump\t// in\n    tag_67:\n        /* \"#utility.yul\":901:1123   */\n      swap3\n      swap2\n      pop\n      pop\n      jump\t// out\n        /* \"#utility.yul\":1210:1401   */\n    tag_27:\n        /* \"#utility.yul\":1250:1254   */\n      0x00\n        /* \"#utility.yul\":1270:1290   */\n      tag_71\n        /* \"#utility.yul\":1288:1289   */\n      dup3\n        /* \"#utility.yul\":1270:1290   */\n      tag_65\n      jump\t// in\n    tag_71:\n        /* \"#utility.yul\":1265:1290   */\n      swap2\n      pop\n        /* \"#utility.yul\":1304:1324   */\n      tag_72\n        /* \"#utility.yul\":1322:1323   */\n      dup4\n        /* \"#utility.yul\":1304:1324   */\n      tag_65\n      jump\t// in\n    tag_72:\n        /* \"#utility.yul\":1299:1324   */\n      swap3\n      pop\n        /* \"#utility.yul\":1343:1344   */\n      dup3\n        /* \"#utility.yul\":1340:1341   */\n      dup3\n        /* \"#utility.yul\":1337:1345   */\n      lt\n        /* \"#utility.yul\":1334:1368   */\n      iszero\n      tag_73\n      jumpi\n        /* \"#utility.yul\":1348:1366   */\n      tag_74\n      tag_75\n      jump\t// in\n    tag_74:\n        /* \"#utility.yul\":1334:1368   */\n    tag_73:\n        /* \"#utility.yul\":1393:1394   */\n      dup3\n        /* \"#utility.yul\":1390:1391   */\n      dup3\n        /* \"#utility.yul\":1386:1395   */\n      sub\n        /* \"#utility.yul\":1378:1395   */\n      swap1\n      pop\n        /* \"#utility.yul\":1210:1401   */\n      swap3\n      swap2\n      pop\n      pop\n      jump\t// out\n        /* \"#utility.yul\":1407:1503   */\n    tag_76:\n        /* \"#utility.yul\":1444:1451   */\n      0x00\n        /* \"#utility.yul\":1473:1497   */\n      tag_78\n        /* \"#utility.yul\":1491:1496   */\n      dup3\n        /* \"#utility.yul\":1473:1497   */\n      tag_79\n      jump\t// in\n    tag_78:\n        /* \"#utility.yul\":1462:1497   */\n      swap1\n      pop\n        /* \"#utility.yul\":1407:1503   */\n      swap2\n      swap1\n      pop\n      jump\t// out\n        /* \"#utility.yul\":1509:1635   */\n    tag_79:\n        /* \"#utility.yul\":1546:1553   */\n      0x00\n        /* \"#utility.yul\":1586:1628   */\n      0xffffffffffffffffffffffffffffffffffffffff\n        /* \"#utility.yul\":1579:1584   */\n      dup3\n        /* \"#utility.yul\":1575:1629   */\n      and\n        /* \"#utility.yul\":1564:1629   */\n      swap1\n      pop\n        /* \"#utility.yul\":1509:1635   */\n      swap2\n      swap1\n      pop\n      jump\t// out\n        /* \"#utility.yul\":1641:1718   */\n    tag_65:\n        /* \"#utility.yul\":1678:1685   */\n      0x00\n        /* \"#utility.yul\":1707:1712   */\n      dup2\n        /* \"#utility.yul\":1696:1712   */\n      swap1\n      pop\n        /* \"#utility.yul\":1641:1718   */\n      swap2\n      swap1\n      pop\n      jump\t// out\n        /* \"#utility.yul\":1724:1904   */\n    tag_75:\n        /* \"#utility.yul\":1772:1849   */\n      0x4e487b7100000000000000000000000000000000000000000000000000000000\n        /* \"#utility.yul\":1769:1770   */\n      0x00\n        /* \"#utility.yul\":1762:1850   */\n      mstore\n        /* \"#utility.yul\":1869:1873   */\n      0x11\n        /* \"#utility.yul\":1866:1867   */\n      0x04\n        /* \"#utility.yul\":1859:1874   */\n      mstore\n        /* \"#utility.yul\":1893:1897   */\n      0x24\n        /* \"#utility.yul\":1890:1891   */\n      0x00\n        /* \"#utility.yul\":1883:1898   */\n      revert\n        /* \"#utility.yul\":1910:2090   */\n    tag_24:\n        /* \"#utility.yul\":1958:2035   */\n      0x4e487b7100000000000000000000000000000000000000000000000000000000\n        /* \"#utility.yul\":1955:1956   */\n      0x00\n        /* \"#utility.yul\":1948:2036   */\n      mstore\n        /* \"#utility.yul\":2055:2059   */\n      0x32\n        /* \"#utility.yul\":2052:2053   */\n      0x04\n        /* \"#utility.yul\":2045:2060   */\n      mstore\n        /* \"#utility.yul\":2079:2083   */\n      0x24\n        /* \"#utility.yul\":2076:2077   */\n      0x00\n        /* \"#utility.yul\":2069:2084   */\n      revert\n        /* \"#utility.yul\":2219:2336   */\n    tag_59:\n        /* \"#utility.yul\":2328:2329   */\n      0x00\n        /* \"#utility.yul\":2325:2326   */\n      dup1\n        /* \"#utility.yul\":2318:2330   */\n      revert\n        /* \"#utility.yul\":2342:2464   */\n    tag_51:\n        /* \"#utility.yul\":2415:2439   */\n      tag_88\n        /* \"#utility.yul\":2433:2438   */\n      dup2\n        /* \"#utility.yul\":2415:2439   */\n      tag_76\n      jump\t// in\n    tag_88:\n        /* \"#utility.yul\":2408:2413   */\n      dup2\n        /* \"#utility.yul\":2405:2440   */\n      eq\n        /* \"#utility.yul\":2395:2458   */\n      tag_89\n      jumpi\n        /* \"#utility.yul\":2454:2455   */\n      0x00\n        /* \"#utility.yul\":2451:2452   */\n      dup1\n        /* \"#utility.yul\":2444:2456   */\n      revert\n        /* \"#utility.yul\":2395:2458   */\n    tag_89:\n        /* \"#utility.yul\":2342:2464   */\n      pop\n      jump\t// out\n        /* \"#utility.yul\":2470:2592   */\n    tag_55:\n        /* \"#utility.yul\":2543:2567   */\n      tag_91\n        /* \"#utility.yul\":2561:2566   */\n      dup2\n        /* \"#utility.yul\":2543:2567   */\n      tag_65\n      jump\t// in\n    tag_91:\n        /* \"#utility.yul\":2536:2541   */\n      dup2\n        /* \"#utility.yul\":2533:2568   */\n      eq\n        /* \"#utility.yul\":2523:2586   */\n      tag_92\n      jumpi\n        /* \"#utility.yul\":2582:2583   */\n      0x00\n        /* \"#utility.yul\":2579:2580   */\n      dup1\n        /* \"#utility.yul\":2572:2584   */\n      revert\n        /* \"#utility.yul\":2523:2586   */\n    tag_92:\n        /* \"#utility.yul\":2470:2592   */\n      pop\n      jump\t// out\n\n    auxdata: 0xa2646970667358221220b5bb93cedf79f6848fb71b0c9dc6184307f83d3462972c3b225f352f273af55564736f6c63430008070033\n}\n",
				"bytecode": {
					"linkReferences": {},
					"object": "608060405234801561001057600080fd5b506104fa806100206000396000f3fe60806040526004361061003f5760003560e01c80632b8f2042146100445780632c4b55861461004e578063487f3fa714610058578063c1cfb99a14610095575b600080fd5b61004c6100c0565b005b6100566101d9565b005b34801561006457600080fd5b5061007f600480360381019061007a9190610359565b61029b565b60405161008c91906103a8565b60405180910390f35b3480156100a157600080fd5b506100aa6102cc565b6040516100b791906103a8565b60405180910390f35b62093a806000803373ffffffffffffffffffffffffffffffffffffffff1673ffffffffffffffffffffffffffffffffffffffff16815260200190815260200160002060018154811061011557610114610462565b5b90600052602060002001544261012b91906103c3565b1461013557600080fd5b3373ffffffffffffffffffffffffffffffffffffffff166108fc6000803373ffffffffffffffffffffffffffffffffffffffff1673ffffffffffffffffffffffffffffffffffffffff1681526020019081526020016000206000815481106101a05761019f610462565b5b90600052602060002001549081150290604051600060405180830381858888f193505050501580156101d6573d6000803e3d6000fd5b50565b346000803373ffffffffffffffffffffffffffffffffffffffff1673ffffffffffffffffffffffffffffffffffffffff16815260200190815260200160002060008154811061022b5761022a610462565b5b9060005260206000200181905550426000803373ffffffffffffffffffffffffffffffffffffffff1673ffffffffffffffffffffffffffffffffffffffff16815260200190815260200160002060018154811061028b5761028a610462565b5b9060005260206000200181905550565b600060205281600052604060002081815481106102b757600080fd5b90600052602060002001600091509150505481565b60008060003373ffffffffffffffffffffffffffffffffffffffff1673ffffffffffffffffffffffffffffffffffffffff16815260200190815260200160002060008154811061031f5761031e610462565b5b9060005260206000200154905090565b60008135905061033e81610496565b92915050565b600081359050610353816104ad565b92915050565b600080604083850312156103705761036f610491565b5b600061037e8582860161032f565b925050602061038f85828601610344565b9150509250929050565b6103a281610429565b82525050565b60006020820190506103bd6000830184610399565b92915050565b60006103ce82610429565b91506103d983610429565b9250828210156103ec576103eb610433565b5b828203905092915050565b600061040282610409565b9050919050565b600073ffffffffffffffffffffffffffffffffffffffff82169050919050565b6000819050919050565b7f4e487b7100000000000000000000000000000000000000000000000000000000600052601160045260246000fd5b7f4e487b7100000000000000000000000000000000000000000000000000000000600052603260045260246000fd5b600080fd5b61049f816103f7565b81146104aa57600080fd5b50565b6104b681610429565b81146104c157600080fd5b5056fea2646970667358221220b5bb93cedf79f6848fb71b0c9dc6184307f83d3462972c3b225f352f273af55564736f6c63430008070033",
					"opcodes": "PUSH1 0x80 PUSH1 0x40 MSTORE CALLVALUE DUP1 ISZERO PUSH2 0x10 JUMPI PUSH1 0x0 DUP1 REVERT JUMPDEST POP PUSH2 0x4FA DUP1 PUSH2 0x20 PUSH1 0x0 CODECOPY PUSH1 0x0 RETURN INVALID PUSH1 0x80 PUSH1 0x40 MSTORE PUSH1 0x4 CALLDATASIZE LT PUSH2 0x3F JUMPI PUSH1 0x0 CALLDATALOAD PUSH1 0xE0 SHR DUP1 PUSH4 0x2B8F2042 EQ PUSH2 0x44 JUMPI DUP1 PUSH4 0x2C4B5586 EQ PUSH2 0x4E JUMPI DUP1 PUSH4 0x487F3FA7 EQ PUSH2 0x58 JUMPI DUP1 PUSH4 0xC1CFB99A EQ PUSH2 0x95 JUMPI JUMPDEST PUSH1 0x0 DUP1 REVERT JUMPDEST PUSH2 0x4C PUSH2 0xC0 JUMP JUMPDEST STOP JUMPDEST PUSH2 0x56 PUSH2 0x1D9 JUMP JUMPDEST STOP JUMPDEST CALLVALUE DUP1 ISZERO PUSH2 0x64 JUMPI PUSH1 0x0 DUP1 REVERT JUMPDEST POP PUSH2 0x7F PUSH1 0x4 DUP1 CALLDATASIZE SUB DUP2 ADD SWAP1 PUSH2 0x7A SWAP2 SWAP1 PUSH2 0x359 JUMP JUMPDEST PUSH2 0x29B JUMP JUMPDEST PUSH1 0x40 MLOAD PUSH2 0x8C SWAP2 SWAP1 PUSH2 0x3A8 JUMP JUMPDEST PUSH1 0x40 MLOAD DUP1 SWAP2 SUB SWAP1 RETURN JUMPDEST CALLVALUE DUP1 ISZERO PUSH2 0xA1 JUMPI PUSH1 0x0 DUP1 REVERT JUMPDEST POP PUSH2 0xAA PUSH2 0x2CC JUMP JUMPDEST PUSH1 0x40 MLOAD PUSH2 0xB7 SWAP2 SWAP1 PUSH2 0x3A8 JUMP JUMPDEST PUSH1 0x40 MLOAD DUP1 SWAP2 SUB SWAP1 RETURN JUMPDEST PUSH3 0x93A80 PUSH1 0x0 DUP1 CALLER PUSH20 0xFFFFFFFFFFFFFFFFFFFFFFFFFFFFFFFFFFFFFFFF AND PUSH20 0xFFFFFFFFFFFFFFFFFFFFFFFFFFFFFFFFFFFFFFFF AND DUP2 MSTORE PUSH1 0x20 ADD SWAP1 DUP2 MSTORE PUSH1 0x20 ADD PUSH1 0x0 KECCAK256 PUSH1 0x1 DUP2 SLOAD DUP2 LT PUSH2 0x115 JUMPI PUSH2 0x114 PUSH2 0x462 JUMP JUMPDEST JUMPDEST SWAP1 PUSH1 0x0 MSTORE PUSH1 0x20 PUSH1 0x0 KECCAK256 ADD SLOAD TIMESTAMP PUSH2 0x12B SWAP2 SWAP1 PUSH2 0x3C3 JUMP JUMPDEST EQ PUSH2 0x135 JUMPI PUSH1 0x0 DUP1 REVERT JUMPDEST CALLER PUSH20 0xFFFFFFFFFFFFFFFFFFFFFFFFFFFFFFFFFFFFFFFF AND PUSH2 0x8FC PUSH1 0x0 DUP1 CALLER PUSH20 0xFFFFFFFFFFFFFFFFFFFFFFFFFFFFFFFFFFFFFFFF AND PUSH20 0xFFFFFFFFFFFFFFFFFFFFFFFFFFFFFFFFFFFFFFFF AND DUP2 MSTORE PUSH1 0x20 ADD SWAP1 DUP2 MSTORE PUSH1 0x20 ADD PUSH1 0x0 KECCAK256 PUSH1 0x0 DUP2 SLOAD DUP2 LT PUSH2 0x1A0 JUMPI PUSH2 0x19F PUSH2 0x462 JUMP JUMPDEST JUMPDEST SWAP1 PUSH1 0x0 MSTORE PUSH1 0x20 PUSH1 0x0 KECCAK256 ADD SLOAD SWAP1 DUP2 ISZERO MUL SWAP1 PUSH1 0x40 MLOAD PUSH1 0x0 PUSH1 0x40 MLOAD DUP1 DUP4 SUB DUP2 DUP6 DUP9 DUP9 CALL SWAP4 POP POP POP POP ISZERO DUP1 ISZERO PUSH2 0x1D6 JUMPI RETURNDATASIZE PUSH1 0x0 DUP1 RETURNDATACOPY RETURNDATASIZE PUSH1 0x0 REVERT JUMPDEST POP JUMP JUMPDEST CALLVALUE PUSH1 0x0 DUP1 CALLER PUSH20 0xFFFFFFFFFFFFFFFFFFFFFFFFFFFFFFFFFFFFFFFF AND PUSH20 0xFFFFFFFFFFFFFFFFFFFFFFFFFFFFFFFFFFFFFFFF AND DUP2 MSTORE PUSH1 0x20 ADD SWAP1 DUP2 MSTORE PUSH1 0x20 ADD PUSH1 0x0 KECCAK256 PUSH1 0x0 DUP2 SLOAD DUP2 LT PUSH2 0x22B JUMPI PUSH2 0x22A PUSH2 0x462 JUMP JUMPDEST JUMPDEST SWAP1 PUSH1 0x0 MSTORE PUSH1 0x20 PUSH1 0x0 KECCAK256 ADD DUP2 SWAP1 SSTORE POP TIMESTAMP PUSH1 0x0 DUP1 CALLER PUSH20 0xFFFFFFFFFFFFFFFFFFFFFFFFFFFFFFFFFFFFFFFF AND PUSH20 0xFFFFFFFFFFFFFFFFFFFFFFFFFFFFFFFFFFFFFFFF AND DUP2 MSTORE PUSH1 0x20 ADD SWAP1 DUP2 MSTORE PUSH1 0x20 ADD PUSH1 0x0 KECCAK256 PUSH1 0x1 DUP2 SLOAD DUP2 LT PUSH2 0x28B JUMPI PUSH2 0x28A PUSH2 0x462 JUMP JUMPDEST JUMPDEST SWAP1 PUSH1 0x0 MSTORE PUSH1 0x20 PUSH1 0x0 KECCAK256 ADD DUP2 SWAP1 SSTORE POP JUMP JUMPDEST PUSH1 0x0 PUSH1 0x20 MSTORE DUP2 PUSH1 0x0 MSTORE PUSH1 0x40 PUSH1 0x0 KECCAK256 DUP2 DUP2 SLOAD DUP2 LT PUSH2 0x2B7 JUMPI PUSH1 0x0 DUP1 REVERT JUMPDEST SWAP1 PUSH1 0x0 MSTORE PUSH1 0x20 PUSH1 0x0 KECCAK256 ADD PUSH1 0x0 SWAP2 POP SWAP2 POP POP SLOAD DUP2 JUMP JUMPDEST PUSH1 0x0 DUP1 PUSH1 0x0 CALLER PUSH20 0xFFFFFFFFFFFFFFFFFFFFFFFFFFFFFFFFFFFFFFFF AND PUSH20 0xFFFFFFFFFFFFFFFFFFFFFFFFFFFFFFFFFFFFFFFF AND DUP2 MSTORE PUSH1 0x20 ADD SWAP1 DUP2 MSTORE PUSH1 0x20 ADD PUSH1 0x0 KECCAK256 PUSH1 0x0 DUP2 SLOAD DUP2 LT PUSH2 0x31F JUMPI PUSH2 0x31E PUSH2 0x462 JUMP JUMPDEST JUMPDEST SWAP1 PUSH1 0x0 MSTORE PUSH1 0x20 PUSH1 0x0 KECCAK256 ADD SLOAD SWAP1 POP SWAP1 JUMP JUMPDEST PUSH1 0x0 DUP2 CALLDATALOAD SWAP1 POP PUSH2 0x33E DUP2 PUSH2 0x496 JUMP JUMPDEST SWAP3 SWAP2 POP POP JUMP JUMPDEST PUSH1 0x0 DUP2 CALLDATALOAD SWAP1 POP PUSH2 0x353 DUP2 PUSH2 0x4AD JUMP JUMPDEST SWAP3 SWAP2 POP POP JUMP JUMPDEST PUSH1 0x0 DUP1 PUSH1 0x40 DUP4 DUP6 SUB SLT ISZERO PUSH2 0x370 JUMPI PUSH2 0x36F PUSH2 0x491 JUMP JUMPDEST JUMPDEST PUSH1 0x0 PUSH2 0x37E DUP6 DUP3 DUP7 ADD PUSH2 0x32F JUMP JUMPDEST SWAP3 POP POP PUSH1 0x20 PUSH2 0x38F DUP6 DUP3 DUP7 ADD PUSH2 0x344 JUMP JUMPDEST SWAP2 POP POP SWAP3 POP SWAP3 SWAP1 POP JUMP JUMPDEST PUSH2 0x3A2 DUP2 PUSH2 0x429 JUMP JUMPDEST DUP3 MSTORE POP POP JUMP JUMPDEST PUSH1 0x0 PUSH1 0x20 DUP3 ADD SWAP1 POP PUSH2 0x3BD PUSH1 0x0 DUP4 ADD DUP5 PUSH2 0x399 JUMP JUMPDEST SWAP3 SWAP2 POP POP JUMP JUMPDEST PUSH1 0x0 PUSH2 0x3CE DUP3 PUSH2 0x429 JUMP JUMPDEST SWAP2 POP PUSH2 0x3D9 DUP4 PUSH2 0x429 JUMP JUMPDEST SWAP3 POP DUP3 DUP3 LT ISZERO PUSH2 0x3EC JUMPI PUSH2 0x3EB PUSH2 0x433 JUMP JUMPDEST JUMPDEST DUP3 DUP3 SUB SWAP1 POP SWAP3 SWAP2 POP POP JUMP JUMPDEST PUSH1 0x0 PUSH2 0x402 DUP3 PUSH2 0x409 JUMP JUMPDEST SWAP1 POP SWAP2 SWAP1 POP JUMP JUMPDEST PUSH1 0x0 PUSH20 0xFFFFFFFFFFFFFFFFFFFFFFFFFFFFFFFFFFFFFFFF DUP3 AND SWAP1 POP SWAP2 SWAP1 POP JUMP JUMPDEST PUSH1 0x0 DUP2 SWAP1 POP SWAP2 SWAP1 POP JUMP JUMPDEST PUSH32 0x4E487B7100000000000000000000000000000000000000000000000000000000 PUSH1 0x0 MSTORE PUSH1 0x11 PUSH1 0x4 MSTORE PUSH1 0x24 PUSH1 0x0 REVERT JUMPDEST PUSH32 0x4E487B7100000000000000000000000000000000000000000000000000000000 PUSH1 0x0 MSTORE PUSH1 0x32 PUSH1 0x4 MSTORE PUSH1 0x24 PUSH1 0x0 REVERT JUMPDEST PUSH1 0x0 DUP1 REVERT JUMPDEST PUSH2 0x49F DUP2 PUSH2 0x3F7 JUMP JUMPDEST DUP2 EQ PUSH2 0x4AA JUMPI PUSH1 0x0 DUP1 REVERT JUMPDEST POP JUMP JUMPDEST PUSH2 0x4B6 DUP2 PUSH2 0x429 JUMP JUMPDEST DUP2 EQ PUSH2 0x4C1 JUMPI PUSH1 0x0 DUP1 REVERT JUMPDEST POP JUMP INVALID LOG2 PUSH5 0x6970667358 0x22 SLT KECCAK256 0xB5 0xBB SWAP4 0xCE 0xDF PUSH26 0xF6848FB71B0C9DC6184307F83D3462972C3B225F352F273AF555 PUSH5 0x736F6C6343 STOP ADDMOD SMOD STOP CALLER "
				},
				"gasEstimates": {
					"creation": {
						"codeDepositCost": "254800",
						"executionCost": "294",
						"totalCost": "255094"
					},
					"external": {
						"addressList(address,uint256)": "infinite",
						"get_balance()": "4750",
						"set_balance()": "48884",
						"withdraw_funds()": "infinite"
					}
				},
				"methodIdentifiers": {
					"addressList(address,uint256)": "487f3fa7",
					"get_balance()": "c1cfb99a",
					"set_balance()": "2c4b5586",
					"withdraw_funds()": "2b8f2042"
				}
			},
			"storageLayout": {
				"storage": [
					{
						"astId": 7,
						"contract": "contracts/1_Storage.sol:timelock",
						"label": "addressList",
						"offset": 0,
						"slot": "0",
						"type": "t_mapping(t_address,t_array(t_uint256)dyn_storage)"
					}
				],
				"types": {
					"t_address": {
						"encoding": "inplace",
						"label": "address",
						"numberOfBytes": "20"
					},
					"t_array(t_uint256)dyn_storage": {
						"base": "t_uint256",
						"encoding": "dynamic_array",
						"label": "uint256[]",
						"numberOfBytes": "32"
					},
					"t_mapping(t_address,t_array(t_uint256)dyn_storage)": {
						"encoding": "mapping",
						"key": "t_address",
						"label": "mapping(address => uint256[])",
						"numberOfBytes": "32",
						"value": "t_array(t_uint256)dyn_storage"
					},
					"t_uint256": {
						"encoding": "inplace",
						"label": "uint256",
						"numberOfBytes": "32"
					}
				}
			},
			"userdoc": {
				"kind": "user",
				"methods": {},
				"version": 1
			}
		}
	}
}